:100000000C9447020C9464020C9464020C946402F5
:100010000C9464020C9464020C9464020C946402C8
:100020000C9464020C9464020C943A1B0C940C1C07
:100030000C9441160C9464020C9464020C946402B7
:100040000C9464020C9464020C9464020C94640298
:100050000C9464020C948E160C9464020C9464024A
:100060000C9464020C9464020C9464020C94640278
:100070000C9464020C9464020C9464020C94640268
:100080000C9464020C9464020C9464020C94640258
:100090000C9464020C9464020C9464020C94640248
:1000A0000C9464020C9464020C9464024F0C4F0C88
:1000B000810C810CCE0CF50DF50DF50DEC0C850DBC
:1000C000960D960D910E910EA30EA30E9A0EA30EF1
:1000D000A30EA30E910E910E9F0EA30EA30E9F0EC4
:1000E000791CA01C981DA01C981DEC1C0F1D981DB0
:1000F000661D751D68747470733A2F2F716D6B2EA9
:10010000666D2F0A00514D4B20697320746865207D
:1001100062657374207468696E6720657665722104
:100120000029003A003B003C003D003E003F0040FB
:10013000004100420043004400450049004C0000DB
:1001400000000035001E001F0020002100220023B7
:100150000024002500260027002D002E002A004B39
:1001600000000000002B0014001A00080015001702
:10017000001C0018000C00120013002F00300000BB
:10018000004E0000000000E1000400160007000916
:10019000000A000B000D000E000F00330034003287
:1001A0000028004A0000000000E10064001D001B60
:1001B0000006001900050011001000360037003855
:1001C00000E5005200000000000000E000E300E253
:1001D000000000000000002C0000000000E600010C
:1001E00051E400500051004F0000000000005C018D
:1001F0000001000100010001000100AC00AE00ABF5
:1002000000A800AA00A90046004800000000000164
:1002100000010001000100010001000100010001D6
:1002200000010001000100010001000100000000C8
:1002300000010001000100010001000100010001B6
:1002400000010001000100010001000000010000A8
:10025000000000390001000100010001000100015F
:100260000001000100010001000100010001004D3A
:100270000000000000010001000100010001000178
:100280000001000100010001000100010001000166
:10029000000000000000000100010001000000005B
:1002A0000000000100000000000100010001000149
:1002B000000100010000000000000000000000003C
:1002C000002A2B28000000000000000000000000B1
:1002D0000000000029000000002C1E3420212224F0
:1002E000342627252E362D3738271E1F202122237E
:1002F0002425263333362E37381F04050607080910
:100300000A0B0C0D0E0F10111213141516171819D5
:100310001A1B1C1D2F3130232D3504050607080933
:100320000A0B0C0D0E0F10111213141516171819B5
:100330001A1B1C1D2F3130354C000000000000003E
:10034000000000000000000000000000007E0F0020
:10035000D4FFFFFFC700000078200361006E006437
:100360000069006D006F0074006F003700350051A8
:10037000003100690073006F000000120361006E1D
:1003800000640069006D006F0074006F00000004DD
:1003900003090409023B00020100A0FA090400005D
:1003A000010301010009211101000122400007059C
:1003B000810308000A09040100010300000009216B
:1003C00011010001226D000705820320000A1201BD
:1003D000100100000008EDFE000003000102000112
:1003E00005010980A101850319012AB7001501261D
:1003F000B700950175108100C0050C0901A10185A8
:100400000419012AA002150126A002950175108188
:1004100000C005010906A1018505050719E029E7C6
:10042000150025019508750181020507190029EFBE
:100430001500250195F075018102050819012905AE
:10044000950575019102950175039101C00501099A
:1004500006A101050719E029E71500250195087592
:100460000181029501750881010507190029FF1511
:100470000026FF0095067508810005081901290569
:10048000950575019102950175039101C000112434
:100490001FBECFEFDAE0DEBFCDBF11E0A0E0B1E0DC
:1004A000ECE2FCE302C005900D92A638B107D9F743
:1004B00022E0A6E8B1E001C01D92AA3BB207E1F735
:1004C0000E947A180C94141E0C94000089322DE5B9
:1004D000920721F08A329D4541F00FC0FB018281D5
:1004E000882359F085E091E006C0FB0182818823D2
:1004F00021F084EF90E00E94860381E0089581E07E
:1005000008950C94660208950C9483021F93CF9370
:10051000DF9300D000D01F92CDB7DEB749835A8356
:100520006B833091AC0189819A81311114C06623AB
:1005300059F0222349F00E945013182F682F898107
:100540009A810E94F91203C00E942413182F698116
:100550007A81812F04C00E94501369817A810F90A3
:100560000F900F900F900F90DF91CF911F910C94EF
:10057000F203FC01262F40815181628173818481C5
:100580000C948602CF93DF93EC0160E00E94B902E5
:10059000BE01DF91CF910C948402FF920F931F93C1
:1005A000CF93DF93E82FF0E0E754FD4FF490C82F8E
:1005B000C695C695C695D0E0FE01E75BFC4F049159
:1005C000877010E0082E02C0159507950A94E2F78F
:1005D00001701127FE01E75CFC4FC491D0E002C01E
:1005E000D595C7958A95E2F7C170DD2701151105EC
:1005F00019F081EE0E94F30A209719F086EE0E940E
:10060000F30A8F2D0E94F40BCD2B19F086EE0E9479
:10061000950B012B41F081EEDF91CF911F910F914E
:10062000FF900C94950BDF91CF911F910F91FF904C
:100630000895EF92FF920F931F93CF93DF938C0156
:10064000F62E8AE0E82EF8018491882309F457C039
:10065000813009F042C0E8012196FE018491813089
:1006600031F42196FE0184910E94F40B39C082304E
:1006700039F4E8012296FE0184910E94F30A30C009
:10068000833039F4E8012296FE0184910E94950B93
:1006900027C0843029F5E8012296FE01249180E0EC
:1006A00090E030E0205331092A30310560F4E89EB3
:1006B000A001E99E500D1124C901840F951F2196B8
:1006C000FE012491EECF009759F0EFE9FFE031975A
:1006D000F1F700C000000197F6CF0E94CD02E801BB
:1006E0008E010F5F1F4F8F2D882309F4ACCFEFE9E8
:1006F000FFE03197F1F700C000008150F5CFDF91A6
:10070000CF911F910F91FF90EF90089560E00C94AE
:1007100019030E94E8160E947B14811102C00E94F6
:1007200022150C94E5050C94E10508950E947F0EB6
:100730000E9495032FEF84E39CE02150804090407D
:10074000E1F700C000000C94B4160F931F93CF93F1
:10075000DF93EC0161E00E94B9028C01BE010E94AE
:100760008102882349F1BE01C8010E94B70788238E
:1007700019F1BE01C8010E9409088823E9F0BE01F1
:10078000C8010E9434098823B9F08A81882369F05E
:1007900001158CE5180731F00F3D1C4531F40E941E
:1007A00022150AC00E94960307C0CE01DF91CF91A7
:1007B0001F910F910C947F0280E0DF91CF911F91E8
:1007C0000F91089508950C94E20381E008950C942C
:1007D000E503CF93C82F0E94E3038C2F0E94E70309
:1007E000CF91089526E6829FC0011124FC0121E1EA
:1007F000729FE00DF11D1124E60FF11DEE0FFF1F9A
:10080000EF5DFE4F859194910895CF93DF930E9401
:10081000F2030E94F604EC0181159245F0F5C11532
:1008200081E5D80708F0A9C0C83ED10528F5C03E2B
:10083000D10508F0D7C0C83AD10578F4C53AD1053A
:1008400008F074C0C130D10509F4CCC008F4C8C0A8
:10085000C430D10508F0C6C0C3C0CF3BD10508F0F5
:10086000BFC0C85AD0E0CC0FDD1FC35FDE4F099078
:10087000D881C02DD464B6C0C11590E5D90708F061
:1008800060C0C11520E4D20708F058C0CE019A9587
:1008900081159F4108F4A6C0A3C0C11586E5D807FD
:1008A00018F5C11595E5D90708F080C0C11524E5F4
:1008B000D20708F076C09E01237033278C2F8695CF
:1008C0008695C115D34508F05DC0C1E0D0E002C0F7
:1008D000CC0FDD1F2A95E2F720E2829FC001112490
:1008E000C82BD92BDC687EC0C1152AE5D20778F465
:1008F000C11589E5D80708F063C0C11598E5D90787
:1009000008F46EC0DC2FCC27C06FD06A6BC0CE015C
:1009100090568115904208F063C08D2F8F710E9410
:100920008A05DD27D0628F71D82B5CC0C55AD0E014
:10093000C55CDE4FC881D0E0D06454C0DF70D06A9F
:1009400051C0CE0174E0969587957A95E1F7837052
:100950009C2F937021E030E002C0220F331F9A9544
:10096000E2F73C68382BCF70C695C69580E2C89FE9
:10097000E0011124C22BD32B35C0DC2FCC27C16F53
:10098000D06A30C0C1E0D0E002C0CC0FDD1F2A9594
:10099000E2F720E2829FC0011124C82BD92BDA682C
:1009A00021C0DC2FCC27C46FD06A1CC08C2F0E94C2
:1009B0008A058F71C82FD0E0DC2FCC27D06212C0FF
:1009C0008C2F8F700E948A0594E0D695C7959A95D2
:1009D000E1F7CF70D0E0DC2FCC27D069C82B02C064
:1009E000C0E0D0E0CE01DF91CF910895823891052B
:1009F00069F1B0F48133910509F46DC048F489328E
:100A0000910509F463C08A32910509F469C008951B
:100A10008533910509F455C089339105B9F00895DE
:100A2000833E910569F138F4803E9105B1F0823E34
:100A3000910509F10895863E9105A9F1873E91053A
:100A4000B9F1843E910509F064C023C02091AB0246
:100A500020FD4FC021FD4DC008958091AB0280FD67
:100A600044C08091AC0280FF44C08091AB0284FD01
:100A700042C083EE4DC08091AB0282FF38C0F5CFFB
:100A80008091AB0282FD33C08091AC0280FD31C009
:100A9000ECCF8091AC0281FF32C08091AB0284FD2B
:100AA0002AC087EE35C08091AB0283FF26C0F5CF08
:100AB0008091AB0283FD21C08091AC0281FD1FC0FB
:100AC000ECCF8091AB0285FD1CC01DC08091AB02B4
:100AD00085FD19C016C08091AB0286FD16C017C0F7
:100AE0008091AB0286FD13C010C089E311C082EE75
:100AF0000FC080EE0DC080E00BC086EE09C084EE12
:100B000007C089E205C085E303C08AE201C081E332
:100B100090E008959091AB0292FF0DC0282F2871AC
:100B2000283019F4877F846006C0282F2471243070
:100B300011F48B7F886093FF0DC0282F2871283116
:100B400019F4877E846106C0282F2471243111F4A2
:100B50008B7E88612091AC0220FF0DC0382F387148
:100B6000383019F4877F816006C0382F31713130F9
:100B700011F48E7F886021FF0DC0282F2871283145
:100B800019F4877E816106C0282F2171213111F46B
:100B90008E7E886194FD877E089524E0829FC00147
:100BA0001124FC01E157FD4F6081718182819381A5
:100BB0000895089580EA8A95F1F7089508950C94B0
:100BC000DE050C94DF050C94DE050C94E305F89427
:100BD000E82FE295EF70F0E031A1282F2F7081E02F
:100BE00090E001C0880F2A95EAF7982F90959323FB
:100BF00091A392A1892B82A378940895CF93DF9338
:100C0000CFE4D1E089910E94E70581E0C535D8079E
:100C1000C9F7CEE3D1E089910E94E70581E0CF34A6
:100C2000D807C9F7E7E7F2E0AFE8B2E08FE892E073
:100C300011921192119211921D921D921D921D926C
:100C40008E179F07A9F786E00E94E206DF91CF91F9
:100C50000C9489032F923F924F925F926F927F92F2
:100C60008F929F92AF92BF92CF92DF92EF92FF92BC
:100C70000F931F93CF93DF9300D01F92CDB7DEB7B2
:100C80008FE4E82E81E0F82E07E712E01B830A8349
:100C9000198222242394312C412C512C320143946B
:100CA0006701F7018081F894E82FE295EF70F0E09A
:100CB00021A18F70810102C0000F111F8A95E2F7F8
:100CC000C801922F982B91A392A18095892382A38A
:100CD00078940E94DA05AEE3B1E080E090E0812CE8
:100CE000912C54015D91E52FE295EF70F0E020A189
:100CF00030E05F7002C0359527955A95E2F720FDE8
:100D00000DC093018201082E04C0000F111F221F85
:100D1000331F0A94D2F7B901A80103C040E050E0A4
:100D2000BA01842A952AA62AB72A0196813191050B
:100D3000C9F61FEFE11AF10AF60180810E94E7056A
:100D4000EA81FB8180819181A281B3818816990615
:100D5000AA06BB0631F080829182A282B38281E032
:100D600001C080E00981082B09830A811B810C5F87
:100D70001F4F1B830A832FE832E02017310709F049
:100D80008FCF298146E06FE872E087E792E00E940A
:100D9000E3060E94930389810F900F900F90DF91DB
:100DA000CF911F910F91FF90EF90DF90CF90BF9068
:100DB000AF909F908F907F906F905F904F903F90FB
:100DC0002F9008950895FF920F931F93CF93DF9371
:100DD000F82ED92F8B01C42F222349F081E0809374
:100DE00088010E94731690938701809386018091F9
:100DF00088018823F1F080918601909187010E94FB
:100E00007F160697B0F0EF2DFD2FD80180E090E01F
:100E10004C2F50E08417950754F4019111912191C2
:100E200031910D931D932D933D930196F3CF109225
:100E30008801DF91CF911F910F91FF900895AF929C
:100E4000BF92CF92DF92EF92FF920F931F93CF93B7
:100E5000DF937C015B01C42FD22FFC0182818823A8
:100E6000F9F040938B010E94731690938A0180934E
:100E7000890180E28C0F883008F06EC0C77081E075
:100E800001C0880FCA95EAF7DF91CF911F910F91AA
:100E9000FF90EF90DF90CF90BF90AF900C94070C35
:100EA00080918B01481335C08091890190918A010E
:100EB0000E947F166C01B701C5010E943811C81647
:100EC000D90638F510E21D0FCD17B9F080E28C0F6E
:100ED000883040F4C77081E001C0880FCA95EAF7F6
:100EE0000E940E0C183058F581E09D2F977001C0BC
:100EF000880F9A95EAF70E94070C802F0E94F40B46
:100F0000183050F5D77081E001C0880FDA95EAF704
:100F10000AC080E28C0F8830F8F4C77081E001C00D
:100F2000880FCA95EAF7DF91CF911F910F91FF903B
:100F3000EF90DF90CF90BF90AF900C940E0C802F6D
:100F4000DF91CF911F910F91FF90EF90DF90CF90A5
:100F5000BF90AF900C94F40BDF91CF911F910F9144
:100F6000FF90EF90DF90CF90BF90AF9008950F93D8
:100F70009C01CB01243F4CE5340731F188F4293D35
:100F8000FCE53F07D9F02A3D4CE5340779F1283DCF
:100F90003C45A9F506E221EE41EE68ED7CE52BC06B
:100FA000263FFCE53F07E1F0A8F0273F3C4539F537
:100FB00007E225EE46EE67EF7CE51DC007E225EE71
:100FC00045EE69ED7CE517C006E221EE40EE64EFE8
:100FD0007CE511C007E225EE44EE65EF7CE50BC031
:100FE00006E221EE42EE66EF7CE505C008E221E074
:100FF00045EE6AED7CE50E941F0780E008C0FC0119
:101000008281882319F010928B0101C081E00F9139
:101010000895CF93DF93EC01FB018281882309F4CB
:101020001FC1C230FCE5DF0708F41BC1C6319CE5D7
:10103000D90738F09E012B5F3C452930310508F077
:1010400010C10E948E149093AC028093AB02C03109
:10105000ECE5DE0709F4C3C008F041C0C8308CE5F8
:10106000D80709F49AC0F0F4C430ECE5DE0709F4BF
:1010700087C068F4C2308CE5D80709F477C0C33064
:10108000DC4509F0E3C08091AB02826076C0C630D7
:10109000ECE5DE0709F46EC008F07BC08091AB027E
:1010A00088606BC0CC308CE5D80709F485C068F443
:1010B000CA30ECE5DE0709F474C008F079C00E947C
:1010C0007F0E8091AB02806858C0CE308CE5D80787
:1010D00009F476C008F07FC08091AB028BC0CC3F92
:1010E000ECE5DE0709F44FC018F5C3318CE5D807ED
:1010F00009F47DC078F4C131ECE5DE0709F473C072
:10110000C231DC4509F0A2C00E947F0E8091AB0283
:101110008F7733C0C5318CE5D80709F472C008F465
:1011200086C0CB3FDC4509F091C08091AC023EC047
:10113000C115FDE5DF0709F45FC058F4CE3F9CE51B
:10114000D90709F444C008F43FC08091AC02826022
:101150002DC0C230FDE5DF0709F475C008F45DC09D
:10116000C330DD4509F072C080E06EC08091AB02F3
:10117000816003C08091AB0280618093AB0266C046
:101180008091AB0211C08091AC0282608093AC026E
:101190005DC08091AB028062F0CF8091AB02806431
:1011A000ECCF8091AB0288608460E7CF8160EECFA6
:1011B0008091AB028E7FE1CF8091AB028D7FDDCF3E
:1011C0008091AB02877FD9CF8091AC0218C080910B
:1011D000AC028D7FDBCF8091AB028F7ECECF809132
:1011E000AB028F7DCACF8091AB028F7BC6CF80913F
:1011F000AB02877F8B7FC1CF8091AC028D7F8E7FCA
:10120000C5CF8091AB0282FB222720F991E0922783
:1012100090FB82F990FB83F9B0CF8091AC02982FBC
:10122000909591708E7F892B90FB81F9AFCF0E94B2
:101230007F0E8091AB0287FB222720F991E0922755
:1012400090FB87F99ACF81E00E9424158091AB0230
:101250009091AC020E949F140E947F0E80E001C01A
:1012600081E0DF91CF910895CF93DF9386319C4544
:1012700041F5EB010E94D113982F8A812091000142
:1012800030910101882379F09A7A81E009F480E0B5
:1012900080938C01911102C069E201C065E3C9012C
:1012A0000E94BF150AC080918C01811102C069E2C1
:1012B00001C065E3C9010E94CA150E94121480E0B2
:1012C00001C081E0DF91CF910895909392018093C6
:1012D00091010895E0919101F0919201309721F0F0
:1012E0000190F081E02D099480E00895E091910152
:1012F000F0919201309799F020910C01222359F03E
:101300002091AB0227FF07C0DC012C9111962C9392
:10131000119725E02C930280F381E02D0994089524
:1013200020918F01309190012817390771F0909327
:10133000900180938F01E0919101F091920130979B
:1013400021F00680F781E02D0994089520918D0108
:1013500030918E012817390771F090938E01809398
:101360008D01E0919101F0919201309721F000847C
:10137000F185E02D0994089585B7806885BF85B70C
:10138000806885BF089581E008950C94C30908958D
:101390000C94C7090C94C7090C94CA090C94C7098A
:1013A0000C94CE090C94C7090E94BC090E94D20972
:1013B0000C94D0090E946A160E94FE050E94FC1639
:1013C0000C94CC092F923F924F925F926F927F9232
:1013D0008F929F92AF92BF92CF92DF92EF92FF9245
:1013E0000F931F93CF93DF93CDB7DEB72B970FB635
:1013F000F894DEBF0FBECDBF0E94C8090E94C70986
:101400000E942A060E94C509811111C08FEF8983AD
:101410008A831B820E9473168160782F9D838C8340
:1014200049815A816B818D810E94BF0A6BC044E95A
:10143000242E41E0342E00E010E00B87802F0E9424
:10144000CD054B015C01F10141905190619071908B
:101450001F01462657266826792641145104610447
:10146000710431F40F5F1F4F0630110531F7CECFF5
:101470008091530281FD0E94D90580E0C12CD12CBE
:101480007601C394B301A2014C215D216E217F211D
:10149000452B462B472B71F18E83FB85FF838C20D8
:1014A0009D20AE20BF2081E089288A288B2809F45E
:1014B00080E088870E9473168160782F9A878987D9
:1014C0004E815F8168858A850E94BF0A000F111FC7
:1014D000000F111FF801EC56FE4F80819181A2810F
:1014E000B381C826D926EA26FB26C082D182E282B1
:1014F000F38208C08F5FCC0CDD1CEE1CFF1C813119
:1015000009F6B0CF0E946A09909193018917F1F012
:101510000E946A09809393012B960FB6F894DEBF60
:101520000FBECDBFDF91CF911F910F91FF90EF9034
:10153000DF90CF90BF90AF909F908F907F906F90F3
:101540005F904F903F902F900C94E9032B960FB62D
:10155000F894DEBF0FBECDBFDF91CF911F910F91E9
:10156000FF90EF90DF90CF90BF90AF909F908F90C3
:101570007F906F905F904F903F902F900895CF9302
:10158000DF93CDB7DEB72B970FB6F894DEBF0FBE53
:10159000CDBF4F83588769877A878B87DE01119685
:1015A00086E0FD0111928A95E9F785E0FE01379604
:1015B00001900D928A95E1F749815A816B817C8176
:1015C0008D819E810E943B112B960FB6F894DEBF51
:1015D0000FBECDBFDF91CF910895FC018081918135
:1015E0000E9492130895CF93882309F49CC0C82FBA
:1015F0008238C1F40E946A0981FD95C069E3809137
:101600000001909101010E94BF150E9412142FEF5A
:1016100081EE94E0215080409040E1F700C000004E
:1016200069E319C0833801F50E946A0980FD7BC017
:1016300063E580910001909101010E94BF150E9415
:1016400012142FEF81EE94E0215080409040E1F79A
:1016500000C0000063E580910001909101010E94AB
:10166000CA15CF910C9412148438C1F40E946A09EF
:1016700082FD59C067E480910001909101010E94B0
:10168000BF150E9412142FEF81EE94E0215080408C
:101690009040E1F700C0000067E4DDCF8CEF8C0FD5
:1016A000813AD0F46C2F80910001909101010E9449
:1016B0003F15882349F06C2F809100019091010122
:1016C0000E94CA150E9412146C2F80910001909103
:1016D00001010E94BF15C5CF80E28C0F883048F40D
:1016E000C77081E001C0880FCA95EAF70E94D41341
:1016F000B8CFEBE5EC0FE33040F4F0E0ED57FE4FF0
:10170000808190E0CF910C949009C85AC73158F469
:10171000EC2FF0E0EE0FFF1FEB5AFE4F808191811E
:10172000CF910C94A609CF910895882309F45BC04A
:10173000682F823879F40E946A0981FF54C069E3F6
:1017400080910001909101010E94BF150E94121426
:1017500069E310C08338B1F40E946A0980FF43C076
:1017600063E580910001909101010E94BF150E94E4
:10177000121463E580910001909101010E94CA1545
:101780000C941214843879F40E946A0982FF2BC0E9
:1017900067E480910001909101010E94BF150E94B1
:1017A000121467E4E7CF8CEF860F813A18F380E2DA
:1017B000860F883048F4677081E001C0880F6A9511
:1017C000EAF70E94DA13DCCF8BE5860F833020F432
:1017D00080E090E00C949009685A673120F480E032
:1017E00090E00C94A6090895CF93C82F0E94F30AA5
:1017F000C93349F42FEF87EE93E0215080409040A9
:10180000E1F700C000008C2FCF910C94950B88233A
:1018100021F00E94D4130C9412140895882321F00F
:101820000E94DA130C9412140895CF92DF92EF9273
:10183000FF920F931F93CF93DF937C01D62FC72F77
:10184000FC01058102950F70128111110E94F113A4
:101850000E94CA13882399F0112389F08C2F807F6E
:10186000803421F080E28D0F883048F082E00E94C1
:101870005C140E94CA1391E0D82ED92601C0D12C45
:10188000CC2EC2948FE0C8228C2D90E08C30910534
:1018900008F0ABC1FC01EA5AFF4F0C94CC1D8C2F11
:1018A000807FCF70882311F0C295C07F112399F0FB
:1018B000CC2309F486C180E28D0F883010F0D1115D
:1018C00004C08C2F0E94D41303C08C2F0E94E413F9
:1018D0000E94121476C18D2F0E94950BCC2309F41F
:1018E00084C180E28D0F883010F0D11104C08C2F9C
:1018F0000E94DA1303C08C2F0E94EA130E94121474
:1019000074C18C2F807FCF70803211F0C295C07F60
:10191000DD2319F0D130C9F022C0112371F000236A
:1019200041F0013031F40E94F7138C2B0E94FF1319
:101930005CC10E94F7138C2B1DC0002319F00130ED
:1019400009F453C10E94081425C0112321F0063068
:1019500008F04BC10EC0053008F047C11BC0112371
:1019600061F0002331F0F701858180FF2AC18F707B
:1019700085838C2F0E94070C38C1002359F0D9337E
:1019800009F030C1FFEF07EE13E0F15000401040C6
:10199000E1F726C18C2F0E940E0C27C18C2F869553
:1019A0008695837019F0813061F01FC1112321F0F9
:1019B0008D2F9C2F937002C080E090E00E949009D0
:1019C0001CC1112321F08D2F9C2F937002C080E049
:1019D00090E00E94A60911C18C2F837009F047C0C6
:1019E000111107C12D2F229526952770220F220F46
:1019F0006D2F6F70862F90E0A0E0B0E0022E04C043
:101A0000880F991FAA1FBB1F0A94D2F7D4FF10C0DA
:101A10004FE050E060E070E004C0440F551F661FC7
:101A2000771F2A95D2F7409550956095709503C021
:101A300040E050E0BA01C695C695C3708A019B018B
:101A4000082B192B2A2B3B2BC901B801C23049F0B6
:101A500058F4C13019F00E940F12CBC00E94FD1142
:101A6000C8C00E942112C5C00E94FB11C2C0112330
:101A700019F08C2F817001C08695882309F4B9C0B4
:101A80002D2F229526952770220F220F6D2F6F7014
:101A9000862F90E0A0E0B0E0022E04C0880F991FCE
:101AA000AA1FBB1F0A94D2F7D4FF10C04FE050E02A
:101AB00060E070E004C0440F551F661F771F2A9531
:101AC000D2F7409550956095709503C040E050E086
:101AD000BA01C695C695C3708A019B01082B192BC4
:101AE0002A2B3B2BC901B801C23049F058F4C13050
:101AF00019F00E94D4127DC00E94C2127AC00E94C6
:101B0000E61277C00E94351274C0CF70112339F0ED
:101B10008C2F0E945B128D2F0E94070C6AC08D2FA4
:101B20000E940E0C8C2F0E947C1263C0D23F01F1E8
:101B300028F4D03F41F0D13FA1F03FC0D33FF9F0AE
:101B4000D43F39F13AC0112341F0053008F04DC0BF
:101B50008C2F8F710E94A11248C0063008F045C03A
:101B6000F7CF112339F08C2F8F710E945B123DC08B
:101B70001123C9F38C2F8F710E947C1236C0112360
:101B800029F08C2F8F710E9446122FC00E944112A3
:101B90002CC0112349F0CF718C2F0E945B1263E09F
:101BA0008C2F0E94471421C081E00E945C140230F7
:101BB000E0F082E00E945C1418C0112331F0002391
:101BC00091F28D2F0E94F30A10C0002399F2D933AD
:101BD00049F41FEF27EE33E0115020403040E1F789
:101BE00000C000008D2F0E94950B88EF8C0D843073
:101BF00020F40E946A090E94E903DD20C9F00E94D6
:101C0000C61380FD15C0F70112820E94C0130E9406
:101C10005B12C7010E94390E0E94C013DF91CF9161
:101C20001F910F91FF90EF90DF90CF900C947C125A
:101C3000DF91CF911F910F91FF90EF90DF90CF90A8
:101C400008950F931F93CF93DF93EC0168817981FF
:101C50008A810E949D138C010E94F8120E94E91152
:101C6000B801CE010E94150CDF91CF911F910F9109
:101C70000895CF93DF93EC01988189812B813C817A
:101C8000232B31F08F3F31F481E09F3F19F403C0E3
:101C900081E001C080E080FD19C0CE010E94A50353
:101CA00081110CC00E94CA13882381F08A81882385
:101CB00069F082E0DF91CF910C945C14CE010E9418
:101CC000210ECE01DF91CF910C94C202DF91CF9112
:101CD00008950E94F1130E94F4130E94121480E0F0
:101CE00090E00E94900980E090E00C94A609809119
:101CF0000001909101010E94D5150C94690E0E947B
:101D0000E1130C94770EE92FE295EF704E2F50E01F
:101D1000FA013297EE30F105B0F4EE59FF4F0C9412
:101D2000CC1D803F91F018F4883E68F40EC0843FCB
:101D300051F40BC0883E48F0813F29F406C093FB64
:101D4000882780F9089580E0089581E008950E9431
:101D500092130E94830E0895CF93DF9300D000D09A
:101D60001F92CDB7DEB70F900F900F900F900F908E
:101D7000DF91CF910895CF93DF9300D000D000D0B2
:101D8000CDB7DEB726960FB6F894DEBF0FBECDBF37
:101D9000DF91CF9108951F93CF93DF93C091AD0151
:101DA00016E08091AE01C81799F0D0E01C9FF001B9
:101DB0001D9FF00D1124E155FE4F4081518162813C
:101DC0007381848195810E94BB0E2196C770E9CFF3
:101DD000DF91CF911F9108954091DF015091E00173
:101DE0006091E1017091E2018091E3019091E40141
:101DF0000C94BB0E0F931F93CF93DF938091E4015C
:101E000082958F7009F05DC08091E101882309F40B
:101E100058C08091AD011091AE016091DF017091C9
:101E2000E001C091E201D091E30191E06F3F09F040
:101E300090E0292F06E0811709F443C0209721F094
:101E40007F3F21F030E003C031E001C0322F90E04D
:101E500030FD34C0089FF001099FF00D1124DF010F
:101E6000A155BE4F11963C911197371327C03C9155
:101E7000361324C012963C91129731111FC013964D
:101E80004D915C9114974C1B5D0B483C5105B0F48F
:101E90008091E4018F7080618093E401EC54FE4FE7
:101EA00080818F70806180838FED91E00E94390E78
:101EB000DF91CF911F910F910C94CB0E01968770FB
:101EC000BACFDF91CF911F910F9108959F92AF925A
:101ED000BF92CF92DF92EF92FF920F931F93CF9317
:101EE000DF93CDB7DEB761970FB6F894DEBF0FBEB4
:101EF000CDBF8C0185E0F801DE011D9601900D92A9
:101F00008A95E1F7F80140815181E2809091DF01EB
:101F10006091E0012091E2013091E301211531054A
:101F200031F06F3F31F481E09F3F19F403C081E04D
:101F300001C080E0F82FF1709F2E80FD46C1F801AE
:101F4000A380B4808FEDC82E81E0D82EF090E101FF
:101F5000F501E21BF30BFF2009F4DFC08091E401DF
:101F6000E83CF10508F09BC0282F207F09F052C003
:101F7000561313C0491311C0FE2CE1100EC08F7010
:101F800080618093E4010E94EC0EC6010E94390E2C
:101F90008091E401F801858358C1AB2831F05F3F9F
:101FA00031F481E04F3F19F403C081E001C080E0CB
:101FB00080FD03C081E08E2502C080E090E0F82F14
:101FC000F170FF2E80FF1CC08091AD012091AE0109
:101FD00036E0821709F417C190E0389FF001399F6D
:101FE000F00D1124E155FE4F6181561306C060814A
:101FF000461303C06281E61203C001968770E9CFE1
:10200000FE2CEE2009F421C18091E40181608093CF
:10201000E4015AC0561306C0491304C0E11002C0BF
:10202000F8019FC04D875E878D859E850E94A70E13
:10203000882379F1EE2069F12091E401822F8295C5
:102040008F7090E0029774F08091DF019091E00131
:1020500098878F831986BB86AA862C87CE01079620
:102060000E94390E86E0F801AFEDB1E001900D92CB
:102070008A95E1F70E94FA0E0E94EC0E0DC05617E9
:1020800029F14D875E878D859E850E94A70E81115F
:102090002CC0C8010E94390EFF24F394D6C0282F0B
:1020A000207F69F77A2DB98AA88A6E2D89890E94C6
:1020B000AC0E8FED91E00E94390E86E0F601119290
:1020C0008A95E9F70E94EC0EF12CBFC04913D9CFD5
:1020D000E110D7CFF8018583C8010E94390E86E050
:1020E000F60111928A95E9F7B0C0EE2091F22091A5
:1020F000E401822F82958F7090E002970CF4B2CFAA
:102100008091DF019091E0019A8389831B82BD82D7
:10211000AC822E83CE010196A3CFE83CF10508F0F6
:1021200047C0FE2CEE2009F4B4CF561330C049133B
:102130002EC02091E40120FD21C0822F82958F7056
:10214000482F50E041155105C9F0F80125834F3063
:10215000510541F08F5F982F9295907F822F8F705D
:10216000892B8583C8010E94390E86E0F801AFED06
:10217000B1E001900D928A95E1F742C086E0F80146
:10218000AFEDB1E001900D928A95E1F75EC04D8709
:102190005E878D859E850E94A70E811163CF8091F9
:1021A000E40181608093E401C8010E94390E4DC0B2
:1021B0007A2DB98AA88A6E2D89890E94AC0E86E094
:1021C000F60111928A95E9F71BC0EE2009F461CF60
:1021D0004D875E878D859E850E94A70EF82E8823E9
:1021E00009F457CF86E0F801AFEDB1E001900D9210
:1021F0008A95E1F78FED91E00E94ED0A0E94FA0EB8
:102200000E94EC0E22C04D875E878D859E850E94C0
:102210009213292F22952F70223028F49F7039F0C5
:10222000811105C00BC0243028F49F7049F4805EF2
:10223000883020F0C8010E94390E9F2CF92C05C06F
:10224000F8019581907F99F7F9CF8F2D61960FB6A0
:10225000F894DEBF0FBECDBFDF91CF911F910F91DC
:10226000FF90EF90DF90CF90BF90AF909F90089538
:1022700088EC90E008951F93CF93DF93CDB7DEB73E
:102280002C970FB6F894DEBF0FBECDBF4F83588793
:1022900069877A878B879C87CE0107960E94660F95
:1022A0008823D1F09F8188852A853B85232B31F0B7
:1022B0008F3F31F481E09F3F19F403C081E001C0FA
:1022C00080E080FD47C04F81588569857A858B8580
:1022D0009C850E94BB0E3EC086E0FE013796DE0163
:1022E000119601900D928A95E1F7FF81E8856A8544
:1022F0007B856115710531F0EF3F31F481E0FF3FDF
:1023000019F403C081E001C080E080FD23C020916A
:10231000AE0130E0C9010196877099274091AD0167
:1023200050E084179507F1F1F983EA837D836C838C
:1023300096E0929FD001939FB00D1124A155BE4FFE
:10234000FE01319601900D929A95E1F78093AE01CE
:102350000E94CB0E16E08091AD019091AE018917DD
:1023600071F1189FC001112481559E4F0E94660F84
:10237000882329F1E091AD011E9FF0011124E15560
:10238000FE4F4081518162817381848195810E94D9
:10239000BB0E8091AD0190E00196877099278093E4
:1023A000AD01D9CF0E947F0E1092AE011092AD0107
:1023B000EFEDF1E086E0DF011D928A95E9F72C96BA
:1023C0000FB6F894DEBF0FBECDBFDF91CF911F9146
:1023D0000895089508950C94EA110C94EB110E944D
:1023E000ED1160932A0270932B0280932C0290933C
:1023F0002D020C94690E0C94EF110F931F93009112
:102400002A0210912B0220912C0230912D02602B78
:10241000712B822B932B1F910F910C94EF110F9323
:102420001F9300912A0210912B0220912C023091CF
:102430002D0260237123822393231F910F910C940B
:10244000EF110F931F9300912A0210912B022091FC
:102450002C0230912D0260277127822793271F912C
:102460000F910C94EF110C94EA110E9433126093B7
:1024700026027093270280932802909329020C94DD
:10248000690E60E070E0CB010C9435120F931F933E
:1024900041E050E060E070E08A019B0104C0000F61
:1024A000111F221F331F8A95D2F7C901B8011F914E
:1024B0000F910C9435120F931F9341E050E060E0B0
:1024C00070E004C0440F551F661F771F8A95D2F72E
:1024D0008091260290912702A0912802B0912902B2
:1024E0008A019B01082B192B2A2B3B2BC901B80110
:1024F0001F910F910C9435120F931F9341E050E000
:1025000060E070E004C0440F551F661F771F8A9576
:10251000D2F74095509560957095809126029091E4
:102520002702A0912802B09129028A019B01082369
:1025300019232A233B23C901B8011F910F910C9441
:1025400035120F931F9341E050E060E070E004C04B
:10255000440F551F661F771F8A95D2F78091260278
:1025600090912702A0912802B09129028A019B0133
:10257000082719272A273B27C901B8011F910F9166
:102580000C9435120F931F9300912602109127028D
:102590002091280230912902602B712B822B932BE2
:1025A0001F910F910C9435120F931F9300912602E7
:1025B0001091270220912802309129026023712373
:1025C000822393231F910F910C9435120F931F9325
:1025D00000912602109127022091280230912902B1
:1025E00060277127822793271F910F910C94351232
:1025F000089521E1929F800D1124E82FE695E6953C
:10260000E695877051E001C0550F8A95EAF785E09D
:10261000E89FF0011124EB51FE4F20E030E070E024
:102620004081CB01022E02C0969587950A94E2F76D
:102630008170819584278523842781932F5F3F4F65
:102640002530310569F7089521E1929F800D11240D
:10265000682F669566956695982F977085E0689FB8
:10266000B001112440E050E080E0FB01E40FF51FD1
:10267000EB51FE4F208130E0092E02C036952795A0
:102680000A94E2F721703327042E01C0220F0A9426
:10269000EAF7822B4F5F5F4F4530510531F70895C0
:1026A000BF92CF92DF92EF92FF920F931F93CF933F
:1026B000DF938C01C0902602D0902702E090280280
:1026C000F090290280912A0290912B02A0912C0275
:1026D000B0912D02C82AD92AEA2AFB2ACFE1D0E0FC
:1026E000D701C6010C2E04C0B695A795979587957E
:1026F0000A94D2F780FD04C0219790F7B12C07C04F
:10270000BC2EB8018C2F0E9405040197A9F38B2DD4
:10271000DF91CF911F910F91FF90EF90DF90CF90BD
:10272000BF900895CF93DF93EC010E945013BE0138
:102730000E940504DF91CF9108951F93CF93DF93FB
:10274000EB019091AC01992321F0CB010E949213EF
:1027500013C0882349F0CB010E945013182F682F13
:10276000CE010E94F91204C0CB010E942413182F3D
:10277000BE01812F0E940504DF91CF911F91089522
:1027800080912E02859585958595089580912E02DC
:102790008770089590912E02977081E009F480E08F
:1027A000089580915202089590915202892B80934E
:1027B000520208958095909152028923809352028B
:1027C000089510925202089590915102892B80939E
:1027D000510208958095909151028923809351026E
:1027E0000895109251020895109250020895809118
:1027F0002F02089508950C94FA130C94FB139091F2
:102800002F02981721F080932F020C94FD13089546
:1028100080912F02882329F010922F0280E00C94DF
:10282000FD130895E0910001F091010180915202A1
:102830008083E0910001F09101019081809151022B
:10284000892B8083E0910001F091010190818091BA
:102850005002892B808380912F02882381F0E091A0
:102860000001F09101019081892B8083809100010A
:10287000909101010E94291581110E9408148091F4
:102880000001909101010C9476090C94FA1398E0E0
:10289000899F90011124262B20932E020E945B1207
:1028A00080912E028595859585950C9445141092FE
:1028B0002E0280E00C94451420912E0280958223F4
:1028C00080932E02982F977079F430E0482F082ECD
:1028D000000C550B2417350739F08595859585959E
:1028E0000E947C120C94571408956FEF7FEF80E0E4
:1028F00090E00C94FE1D80E090E00E94DA1D21E043
:102900008C3E9E4F09F020E0822F089582E090E0F7
:102910000C94D21D83E090E00C94D21DCF9384E000
:1029200090E00E94D21DC82F81E290E00E94D21D4B
:102930002C2F30E0A901582BCA01CF910895CF93D5
:10294000C92F682F84E090E00E94E01D6C2F81E287
:1029500090E0CF910C94E01DAB01BC018FE090E0C2
:102960000C94F21DAB01BC0183E190E00C94F21DCC
:1029700060E070E0CB010C94B21460E070E0CB0139
:102980000E94AC140C94B8146CEE7EEF80E090E0E2
:102990000E94FE1D60E082E090E00E94E01D60E089
:1029A00083E090E00E94E01D10922A0210922B0218
:1029B00010922C0210922D0260E084E090E00E94C0
:1029C000E01D60E081E290E00E94E01D60E085E0B3
:1029D00090E00E94E01D60E086E090E00E94E01D33
:1029E0006FEF87E090E00E94E01D40E050E0BA0108
:1029F00088E090E00E94F21D60E08DE090E00E948F
:102A0000E01D40E050E0BA0188E190E00E94F21D34
:102A100060E087E190E00E94E01D40E050E0BA01F4
:102A20008CE190E00E94F21D60E080E290E00E9464
:102A3000E01D40E050E0BA0188E190E00E94F21D04
:102A40000C94BD140C94C414682F8EE090E00C9488
:102A5000E01DFC01329680910C01882331F08091B9
:102A6000AB0287FF02C09EE101C096E080E091507A
:102A700028F021912223D9F38F5FF9CF089566239F
:102A800051F120910C012223E9F02091AB0227FFA4
:102A900019C0462F4695469546954E31E0F467702D
:102AA00021E030E002C0220F331F6A95E2F7FC01FB
:102AB000E40FF11D828190E02823392381E0232B4C
:102AC00069F409C0FC01329608962191621729F039
:102AD000E817F907D1F780E0089581E008959C0197
:102AE000FC0132969FEF80E04191461789F09F3FAD
:102AF00019F4411101C0982F8F5F8630A9F79F3FCD
:102B000039F0F901E90FF11D97FDFA9562830895F7
:102B100008959C012A5F3F4FFC014281461301C08A
:102B20001282019682179307B9F70895262F2695EA
:102B3000269526952E3168F4FC01E20FF11D677091
:102B400021E030E001C0220F6A95EAF78281282B4C
:102B500022830895262F2695269526952E3170F4EA
:102B6000FC01E20FF11D677021E030E001C0220F8F
:102B70006A95EAF72095828128232283089520917F
:102B80000C01222329F02091AB0227FD0C9496150D
:102B90000C946F1520910C01222329F02091AB0297
:102BA00027FD0C94AA150C94891520910C01FC01A9
:102BB0003296222331F08091AB0287FF02C08EE172
:102BC00001C086E0DF011D928A95E9F70895089516
:102BD0000C94E7150C94E715CF930E94EA150E9418
:102BE0002A060E94E815C0E08C2F0E94CD05672BB5
:102BF000682B692B29F4CF5FC630B1F780E001C0A4
:102C000081E0CF9108950C94E7150C9403160E946F
:102C100005168091B102843049F11092540220E4EB
:102C200088E190E00FB6F894A895809360000FBEFD
:102C30002093600080E00E94E9030E94051683B79C
:102C4000817F846083BF83B7816083BF78948895D8
:102C500083B78E7F83BF0FB6F894A89580916000EC
:102C6000886180936000109260000FBE08950C94FC
:102C7000E7150E947F0E0E946A090E94E9030C94E6
:102C800037161F920F920FB60F9211248F939F93B6
:102C9000AF93BF9380915402811113C08091A7021A
:102CA0009091A802A091A902B091AA024196A11DFB
:102CB000B11D8093A7029093A802A093A902B0939C
:102CC000AA02BF91AF919F918F910F900FBE0F906D
:102CD0001F90189582E084BD93E095BD9AEF97BD53
:102CE00080936E0008952FB7F8948091A702909179
:102CF000A802A091A902B091AA022FBF08959C0139
:102D00004FB7F8948091A7029091A802A091A902D0
:102D1000B091AA024FBF821B930B089578941F9223
:102D20000F920FB60F9211248F939F93AF93BF937F
:102D30008091A7029091A802A091A902B091AA0245
:102D40000196A11DB11D8093A7029093A802A093A4
:102D5000A902B093AA02BF91AF919F918F910F905A
:102D60000FBE0F901F901895F89481E08093E000BB
:102D700080E28093D800E9ECF0E010828FE19EE4DD
:102D80000197F1F700C000001DBA109268001CBC4A
:102D900010BE1FBA10927A0010926E0010926F004F
:102DA00010927100109272001082ECEBF0E0108231
:102DB00014B817B81AB81DB810BA108215B818B8D8
:102DC0001BB81EB811BA0C94003F08950C947514EA
:102DD0000E942A068FE39CE90197F1F700C00000EA
:102DE0000E942A0680E00E94CD0560FF04C00E9478
:102DF000E6160C94B41608950E947B14811102C04B
:102E00000E9422150E948614809353020E948E1401
:102E10009093AC028093AB020E948A14682F70E0FA
:102E200080E090E00E94FB116091260270912702E1
:102E300080912802909129020C943312809175029E
:102E400008950895CF93DF9300D01F92CDB7DEB7DA
:102E50009091B102943019F589837B836A8382E073
:102E60008093E9008FEF9091E800815095FD06C0B6
:102E700095ED9A95F1F700008111F5CF8091E8006A
:102E800085FF0DC040E050E063E070E0CE010196A8
:102E90000E942E198091E8008E778093E8000F90B1
:102EA0000F900F90DF91CF910895BC0184E00C94B6
:102EB0002217BC0183E00C942217CF93DF9320915B
:102EC0000C01222339F02091AB0227FF03C060E2FE
:102ED00022E002C068E021E02093E9002FEF30916A
:102EE000E800215035FD06C035ED3A95F1F70000B8
:102EF0002111F5CF2091E80025FF1DC0EC01809144
:102F00000C01811105C040E050E068E070E003C0B2
:102F100070E040E050E0CE010E942E198091E80060
:102F20008E778093E80080E2FE01A5E5B2E0019093
:102F30000D928A95E1F7DF91CF9108958091B002CB
:102F4000811109C00E94BF1A0E941C1B8091E200DF
:102F500084608093E20008951092B002089508956D
:102F600008950C94391642E061EC81E00E94381A11
:102F700042E261EC82E00C94381A8091B302833013
:102F800009F460C030F4813071F0823009F499C0E6
:102F900008958A3009F485C08B3009F46BC08930FC
:102FA00009F0A7C020C08091B202813A09F0A1C007
:102FB0008091E800877F8093E8008091B60290912D
:102FC000B702892B21F460E285E592E003C060E05E
:102FD00080E090E070E00E9479198091E8008B77A2
:102FE0008093E80008958091B202813209F081C097
:102FF0008091B6029091B702029708F07AC0809152
:10300000E800877F8093E8008091E80082FD05C09A
:103010008091B1028111F8CF6CC02091F3008091B2
:10302000F20090E0922B029729F48091F1008B7FBF
:10303000813021F48091F100809375028091E80045
:103040008B7753C08091B202813A09F052C08091CF
:10305000B6029091B702892B09F04BC08091E8002D
:10306000877F8093E8008091E80080FFFCCF80910B
:103070000C0136C08091B2028132D9F58091B6023E
:103080009091B702892BA9F58091E800877F809302
:10309000E8000E946D1A8091B40280930C010C9498
:1030A0007F0E8091B202813221F58091E800877F06
:1030B0008093E8000E946D1A8091B5028093760299
:1030C00008958091B202813AA1F48091E800877F4F
:1030D0008093E8008091E80080FFFCCF8091760229
:1030E0008093F1008091E8008E778093E8000C9443
:1030F0006D1A089584B7877F84BF0FB6F894A8959A
:1031000080916000886180936000109260000FBE23
:1031100090E080E80FB6F89480936100909361008E
:103120000FBE0E94D4090E94BF1A0E941C1B8091EE
:10313000E20084608093E20078940E94B11D0E94B6
:10314000DA0982E091E00E9465098091B102853040
:1031500069F40E9407168091AF028823B1F30E94A0
:10316000EC15882391F30E941819EFCF0E94E20911
:103170000E94C8090E94C709E8CF0C94BF18292FE4
:10318000332723303105C9F060F42130310581F057
:103190002230310509F044C08BE390E023E933E0AD
:1031A00043C021323105E1F02232310549F138C006
:1031B00082E190E02EEC33E037C099278130910511
:1031C00049F028F0029761F5E9E5F3E005C0EFE882
:1031D000F3E002C0EBE7F3E0849190E09F0124C0AC
:1031E0006115710541F061307105D1F489E090E01D
:1031F0002EEB33E019C089E090E025EA33E014C0FB
:103200006115710541F06130710551F48DE690E072
:1032100020EE33E009C080E490E02DE434E004C007
:1032200080E090E020E030E0FA01318320830895CF
:1032300080E189BD82E189BD09B400FEFDCF8091A6
:10324000D8008F7D8093D8008091E00082608093C9
:10325000E0008091E00081FDFCCF0895CF92DF92E5
:10326000EF92FF920F931F93CF93DF93EC018B01AB
:103270007A010E948C1A811133C0E114F10439F0F3
:10328000F70180819181081B190BC80FD91FC12C30
:10329000D12C0115110519F18091E80085FD16C0AA
:1032A0008091E8008E778093E800E114F10449F002
:1032B000F70180819181C80ED91ED182C08285E03C
:1032C0000FC00E948C1A882321F30AC08991809331
:1032D000F10001501109FFEFCF1ADF0ADACF80E0C9
:1032E000DF91CF911F910F91FF90EF90DF90CF90E2
:1032F00008952091B8023091B9022617370748F097
:103300006115710539F42091E8002E772093E800CB
:1033100001C0B901FC0120E06115710579F18091CE
:10332000B1028823F1F18530F1F18091E80083FD4D
:103330003CC08091E80082FD2EC08091E80080FFB3
:10334000EBCF2091F3008091F20090E0922B611579
:10335000710551F08830910538F421912093F100E6
:10336000615071090196F3CF21E0089709F020E040
:103370008091E8008E778093E800CECF2111CFCFE7
:103380000AC08091B102882361F0853061F080919C
:10339000E80083FD0AC08091E80082FFF2CF80E060
:1033A000089582E0089583E0089581E008952091D2
:1033B000B8023091B9022617370748F06115710538
:1033C00039F42091E8002E772093E80001C0B9017C
:1033D000FC0120E06115710591F18091B102882313
:1033E00009F440C0853009F43FC08091E80083FDB6
:1033F0003DC08091E80082FD2FC08091E80080FFF1
:10340000E9CF2091F3008091F20090E0922B6115BA
:10341000710559F08830910540F424912093F10012
:103420003196615071090196F2CF21E0089709F0B9
:1034300020E08091E8008E778093E800CBCF2111C7
:10344000CCCF0AC08091B102882361F0853061F051
:103450008091E80083FD0AC08091E80082FFF2CFEE
:1034600080E0089582E0089583E0089581E0089562
:10347000982F973068F59093E900981739F070917C
:10348000EC002091ED005091F00003C0242F762F26
:1034900050E021FD02C09F5FECCF3091EB003E7FFA
:1034A0003093EB003091ED003D7F3093ED00309193
:1034B000EB0031603093EB007093EC002093ED0053
:1034C0005093F0002091EE0027FDE5CF80E00895B5
:1034D0008F708093E90081E008958091B20287FFA8
:1034E00011C08091E80082FD05C08091B102811178
:1034F000F8CF11C08091E8008B770BC08091B102AA
:10350000882349F08091E80080FFF8CF8091E8009F
:103510008E778093E80008952091E4003091E500D3
:1035200095E64091EC00842F817040FF23C080918C
:10353000E80080FD1DC08091B102882399F085309C
:1035400099F08091EB0085FD11C04091E40050910D
:10355000E5002417350729F3915011F09A01E1CFC6
:1035600084E0089582E0089583E0089581E008955D
:1035700080E008954091E80042FFDDCF08950E9469
:103580002D1B0E94351BE0EEF0E08081816080837E
:10359000E8EDF0E080818F77808319BCA7EDB0E083
:1035A0008C918E7F8C9380818F7E80831092B0026D
:1035B00008950F931F93CF93DF930E942D1B0E94BA
:1035C000351BC8EDD0E088818F778883888180683B
:1035D000888388818F7D888319BC1092B1021092F4
:1035E000AD021092AF021092AE0200EE10E0F801B0
:1035F00080818B7F808388818160888342E060E066
:1036000080E00E94381AE1EEF0E080818E7F8083B6
:10361000E2EEF0E080818160808380818860808339
:10362000F80180818E7F8083888180618883DF912B
:10363000CF911F910F910895E8EDF0E080818F7E8A
:103640008083E7EDF0E080818160808384E082BF49
:1036500081E08093B0020C94D91AE8EDF0E080810B
:103660008E7F80831092E20008951092DA0010920B
:10367000E10008951F920F920FB60F9211242F931D
:103680003F934F935F936F937F938F939F93AF93EA
:10369000BF93EF93FF938091E10082FF0BC0809175
:1036A000E20082FF07C08091E1008B7F8093E10000
:1036B0000E94B01D8091DA0080FF1FC08091D80069
:1036C00080FF1BC08091DA008E7F8093DA008091AA
:1036D000D90080FF0DC080E189BD82E189BD09B4B8
:1036E00000FEFDCF81E08093B1020E949E1705C0CD
:1036F00019BC1092B1020E94AC178091E10080FFCA
:1037000019C08091E20080FF15C08091E2008E7F99
:103710008093E2008091E20080618093E2008091DA
:10372000D80080628093D80019BC85E08093B102F4
:103730000E94B0178091E10084FF30C08091E200C8
:1037400084FF2CC080E189BD82E189BD09B400FEFF
:10375000FDCF8091D8008F7D8093D8008091E100CB
:103760008F7E8093E1008091E2008F7E8093E20063
:103770008091E20081608093E2008091AD02882315
:1037800011F084E007C08091E30087FD02C081E072
:1037900001C083E08093B1020E94B1178091E100E3
:1037A00083FF29C08091E20083FF25C08091E10062
:1037B000877F8093E10082E08093B1021092AD0296
:1037C0008091E1008E7F8093E1008091E2008E7F06
:1037D0008093E2008091E20080618093E20042E009
:1037E00060E080E00E94381A8091F0008860809349
:1037F000F0000E94AF17FF91EF91BF91AF919F91A1
:103800008F917F916F915F914F913F912F910F9089
:103810000FBE0F901F9018951F920F920FB60F9228
:1038200011242F933F934F935F936F937F938F93C5
:103830009F93AF93BF93CF93DF93EF93FF93C09189
:10384000E900CF708091EC00D82FD17080FDD0E8D6
:103850001092E9008091F000877F8093F0007894C7
:103860000E94501C1092E9008091F00088608093C3
:10387000F000CD2BCF70C093E900FF91EF91DF9165
:10388000CF91BF91AF919F918F917F916F915F91F8
:103890004F913F912F910F900FBE0F901F90189551
:1038A0001F93CF93DF93CDB7DEB7AA970FB6F894E7
:1038B000DEBF0FBECDBFE2EBF2E08091F10081935D
:1038C00022E0EA3BF207C9F70E94BD178091E800A9
:1038D00083FF2EC18091B2029091B302492F50E034
:1038E0004A30510508F024C1FA01E059FF4F0C9409
:1038F000CC1D803821F0823809F01AC108C08091AF
:10390000AE029091AF02992389F082600FC080913E
:10391000B6028F70873008F00BC18093E900809168
:10392000EB0085FB882780F91092E9009091E80070
:10393000977F9093E8008093F1001092F100D1C03E
:10394000282F2D7F09F0F4C0882319F0823061F010
:10395000EFC08091B402813009F0EAC0933009F0E1
:1039600080E08093AF022EC08091B40281112AC002
:103970008091B6028F702FEF280F263008F0D8C044
:103980008093E9002091EB0020FF1CC0933021F4CC
:103990008091EB00806214C09091EB009061909355
:1039A000EB0021E030E0A90102C0440F551F8A95C9
:1039B000E2F74093EA001092EA008091EB00886001
:1039C0008093EB001092E9008091E800877F80935C
:1039D000E8000E946D1AACC08111AAC01091B40217
:1039E0001F778091E3008078812B8093E3008091A2
:1039F000E800877F8093E8000E946D1A8091E800BC
:103A000080FFFCCF8091E30080688093E300111178
:103A100002C082E001C083E08093B10289C0805877
:103A2000823008F085C08091B4029091B5028C3D3F
:103A300053E0950779F583E08A838AE289834FB75B
:103A4000F894DE01139620E03EE051E2E32FF0E02F
:103A500050935700E49120FF03C0E295EF703F5F61
:103A6000EF708E2F90E0EA3010F0C79601C0C0963C
:103A70008D939D932F5F243149F74FBF8091E800CC
:103A8000877F8093E8006AE270E0CE0101960E9491
:103A9000791916C06091B6027091B702AE014F5FFE
:103AA0005F4F0E94BD18BC01892B09F441C0909161
:103AB000E800977F9093E80089819A810E94D71946
:103AC0008091E8008B778093E80032C0803881F5E0
:103AD0008091E800877F8093E8008091AD02809319
:103AE000F1008091E8008E7772CF811121C0809122
:103AF000B4029091B50299270297D4F48091E8001E
:103B0000877F8093E8008091B4028093AD020E9489
:103B10006D1A8091AD02811106C08091E30087FD8E
:103B200002C081E001C084E08093B1020E94B3171B
:103B30008091E80083FF0AC08091E800877F80932E
:103B4000E8008091EB0080628093EB00AA960FB6AC
:103B5000F894DEBF0FBECDBFDF91CF911F910895C6
:103B60000895CF938091B1028823A1F0C091E9001C
:103B7000CF709091EC00892F817090FD80E8C82B68
:103B80001092E9008091E80083FD0E94501CCF70E4
:103B9000C093E900CF910895EE0FFF1F0590F491B7
:103BA000E02D0994F999FECF92BD81BDF89A99272D
:103BB00080B50895A8E1B0E042E050E00C94061E04
:103BC000262FF999FECF92BD81BDF89A019700B4D6
:103BD000021639F01FBA20BD0FB6F894FA9AF99A76
:103BE0000FBE08950396272F0E94E11D0E94E01D3D
:103BF000252F0E94E11D242F0C94E11D0196272FF3
:103C00000E94E11D0C94E01DDC01CB01FC01F9993F
:103C1000FECF06C0F2BDE1BDF89A319600B40D9218
:0C3C200041505040B8F70895F894FFCFD1
:103C2C0030021E175D1721175917551701E200E9CD
:103C3C0000EA00B500B600B700CD008301CC008AC5
:103C4C00019201940121022302240225022602275B
:103C5C00022A02B300B4006F00700081828391923B
:103C6C0093666795949697343536F7F6F5000030E1
:103C7C003132333790E200E900EA00B500B600B704
:103C8C0000CD008301CC008A019201940121022312
:103C9C000224022502260227022A02B300B4006F76
:063CAC000070008182831C
:00000001FF
