:100000000C940B020C9428020C9428020C942802E5
:100010000C9428020C9428020C9428020C942802B8
:100020000C9428020C9428020C94C2210C94942263
:100030000C94571C0C9428020C9428020C9428024F
:100040000C9428020C9428020C9428020C94280288
:100050000C9428020C94E01C0C9428020C942802A6
:100060000C9428020C9428020C9428020C94280268
:100070000C9428020C9428020C9428020C94280258
:100080000C9428020C9428020C9428020C94280248
:100090000C9428020C9428020C9428020C94280238
:1000A0000C9428020C9428020C9428025205520544
:1000B0007E057E05DF05FD05DE06DE0602066A0614
:1000C0007B067B061A151D15541567156F157A15D5
:1000D0007D157D157D15C515C515821585158A15E6
:1000E0009715A415A715AB15B815261698162E1634
:1000F000F815FC153216FF15351640160A168E1621
:100100000E16441612164816721616164C167C1643
:100110001C1652165C160316391606163C162116C6
:100120005716681688168A16F4152A16A1163D1A4F
:10013000431A311A371A491A4F1A551AFC22232327
:100140001B2423231B246F2392231B24E923F8233E
:1001500068747470733A2F2F716D6B2E666D2F0A51
:1001600000514D4B2069732074686520626573747B
:10017000207468696E672065766572210000005200
:10018000000C0012001300500051004F00360037E1
:100190000000000000000000002A2B2800000000E2
:1001A0000000000000000000000000002900000026
:1001B000002C1E3420212224342627252E362D37CC
:1001C00038271E1F202122232425263333362E379D
:1001D000381F0405060708090A0B0C0D0E0F101135
:1001E00012131415161718191A1B1C1D2F31302342
:1001F0002D350405060708090A0B0C0D0E0F10110A
:1002000012131415161718191A1B1C1D2F3130350F
:100210004C00000000000000000000000000000092
:1002200000000000000000000000000000000000CE
:1002300000000000007E0F00D4FFFFFFC700000099
:10024000782203670061006D00650063006F006E37
:1002500000740072006F006C006C00650072005F3B
:100260000062000000260361006E00640069006DFA
:10027000006F0074006F002D006B00650079006254
:10028000006F006100720064007300000004030945
:100290000409025B00030100A0FA09040000010345
:1002A000010100092111010001224000070581031D
:1002B00008000109040100020300000009211101E6
:1002C0000001222200070582032000010705030325
:1002D00020000109040200010300000009211101AE
:1002E000000122B60007058403200001120100026C
:1002F00000000008EDFE0B00000101020001066095
:10030000FF0961A1010962150026FF00952075080B
:1003100081020963150026FF00952075089102C02F
:1003200005010902A10185020901A10005091901C0
:10033000290815002501950875018102050109307C
:1003400009311581257F95027508810609381581C7
:10035000257F950175088106050C0A38021581254F
:100360007F950175088106C0C005010980A101853E
:100370000319012AB700150126B7009501751081F0
:1003800000C0050C0901A101850419012AA002156C
:100390000126A002950175108100C005010906A182
:1003A000018506050719E029E7150025019508755F
:1003B0000181020507190029EF1500250195F07547
:1003C000018102050819012905950575019102951C
:1003D0000175039101C005010906A101050719E096
:1003E00029E7150025019508750181029501750819
:1003F00081010507190029FF150026FF00950675E4
:1004000008810005081901290595057501910295D6
:100410000175039101C011241FBECFEFDAE0DEBFEA
:10042000CDBF11E0A0E0B1E0EEE3FAE402C0059038
:100430000D92AE39B107D9F722E0AEE9B1E001C0C3
:100440001D92A639B207E1F70E94E3110C941D2515
:100450000C94000080342EE7920721F081349E47EF
:1004600049F011C0FB018581882369F060E081E6D5
:1004700091E007C0FB018581882329F060E080E5D9
:1004800091E00E947E1781E0089581E00895811136
:1004900012C0623080F4453070F4E42FF0E085E063
:1004A000689FE00DF11D1124EE0FFF1FE358FE4F72
:1004B00085919491089581E090E0089581E00895F8
:1004C00081E008950E94600208950E9462020895EA
:1004D0000E942A02089508950E946B020895A6E0E2
:1004E000B0E0E5E7F2E00C94792449835A839E83D7
:1004F0003091A50189819A81311115C03E81332344
:1005000059F0222349F00E947C08182F682F898116
:100510009A810E94580803C00E946A08182F6981B6
:100520007A81812F04C00E947C0869817A810E94AF
:10053000860F2696E3E00C949524FC01262F40813B
:10054000518162817381848195810E946F02089537
:10055000CF93DF93EC0161E00E949D02BE010E94F7
:100560006502DF91CF910895CF93DF93EC0160E0B6
:100570000E949D02BE010E946C02DF91CF910895FE
:1005800008950E9453070E94C0022FEF84E39CE06D
:10059000215080409040E1F700C0000008950E9483
:1005A000C1020E94061D08950E94C1020E94171DEB
:1005B00008950F931F93CF93DF938C0161E00E9406
:1005C0009D02EC01B8010E94E714882309F450C091
:1005D000B801CE010E946802882309F449C0B8011D
:1005E000CE010E94251A882309F442C0B801CE0129
:1005F0000E94D0158823E1F1B801CE010E948B1929
:100600008823B1F1B801CE010E94681A882381F1D4
:10061000F8018581882341F1C3308CE7D807D1F0F8
:1006200040F4C115FCE7DF0791F0C130DC47A1F0D1
:100630001BC0CB35ECE7DE07A9F0CC35FCE7DF07C4
:1006400071F0CA35DC4781F40E94DB0C0DC00E94BA
:10065000CF020EC00E94E30C0E94D40209C00E9487
:10066000D10C02C00E94DF0CC8010E945E0201C0D2
:1006700080E0DF91CF911F910F9108950E942E1C71
:100680000E94650308950E9469030E94371C089523
:10069000089581E008950895CF93DF93D82F0E94A5
:1006A0004903C82F882319F08D2F0E944B038C2FEC
:1006B000DF91CF9108950895CF93C82F0E944803EA
:1006C0008C2F0E944C03CF91089580E00E945C0320
:1006D00008950E94BD1A0E945C030895CF930E9462
:1006E000BD1AC82F8091A001C81779F0C093A0014E
:1006F0000E94C51C6093A1017093A2018093A30185
:100700009093A4018C2F0E945C03CF910895ADE0DB
:10071000B0E0EDE8F3E00C947A24488759876A87C3
:100720007B878C879D8791110E94050CCE010196D5
:1007300027E0FC0111922A95E9F726E0FE013896A0
:10074000DC0101900D922A95E1F72D8121110AC05B
:1007500029813A814B815C816D817E818F810E94EC
:100760004F0B04C00E94A8028111F2CF2D96E2E047
:100770000C949624FC012481213021F48081918104
:100780000E94A9080895662319F00E94681202C009
:100790000E94C3120E943A130895CF93882309F44C
:1007A000A4C0C82F8238C1F40E94BD1A81FD9DC02B
:1007B00069E380910001909101010E94D21B0E9487
:1007C000310C2FEF87EE93E0215080409040E1F70D
:1007D00000C0000069E319C0833801F50E94BD1A0A
:1007E00080FD83C063E580910001909101010E942A
:1007F000D21B0E94310C2FEF81EE94E021508040FB
:100800009040E1F700C0000063E580910001909105
:1008100001010E94E01B0E94310C67C08438C1F4C2
:100820000E94BD1A82FD61C067E480910001909131
:1008300001010E94D21B0E94310C2FEF81EE94E047
:10084000215080409040E1F700C0000067E4DDCF18
:100850008CEF8C0F813AD0F46C2F80910001909135
:1008600001010E94521B882349F06C2F80910001E6
:10087000909101010E94E01B0E94310C6C2F80912D
:100880000001909101010E94D21BC5CF80E28C0F24
:10089000883048F4C77081E001C0880FCA95EAF734
:1008A0000E94E80BB8CFEBE5EC0FE33040F4F0E04A
:1008B000E45BFE4F808190E00E94F21A16C0E8E5EA
:1008C000EC0FEB3150F4F0E0EE0FFF1FEA5EFE4F4D
:1008D000808191810E94171B08C083E38C0F8331B4
:1008E00020F461E08C2F0E94C303CF9108958823E8
:1008F00009F468C0823879F40E94BD1A81FF62C091
:1009000069E380910001909101010E94D21B0E9435
:10091000310C69E310C08338B9F40E94BD1A80FF1E
:1009200051C063E580910001909101010E94D21BAA
:100930000E94310C63E580910001909101010E94B9
:10094000E01B0E94310C0895843879F40E94BD1A8E
:1009500082FF38C067E480910001909101010E94FC
:10096000D21B0E94310C67E4E6CF9CEF980F913ABE
:1009700010F4682FE0CF90E2980F983050F4877011
:1009800091E001C0990F8A95EAF7892F0E94EE0B3A
:10099000D8CF9BE5980F933028F480E090E00E9438
:1009A000F21A089598E5980F9B3128F480E090E0C2
:1009B0000E94171B089593E3980F933118F460E099
:1009C0000E94C30308951F93CF93DF93182FEB0169
:1009D0000E94CD03209741F08FE99FE00197F1F746
:1009E00000C000002197F6CF812F0E947704DF918D
:1009F000CF911F910895893319F060E070E002C033
:100A000060E570E00E94E3040895882321F00E94CD
:100A1000E80B0E94310C0895882321F00E94EE0B10
:100A20000E94310C0895A0E0B0E0E9E1F5E00C94FB
:100A300074247C01162FC72FFC01D58106810295F5
:100A40000F700E94DE0B8823E9F0DD23D9F08C2F94
:100A5000807F803451F080E2810F883098F001115E
:100A600004C08C2F807E803269F08091800282FFEA
:100A700009C082E00E94A50C0E94DE0B91E0D82EF6
:100A8000D92601C0D12CCC2EC2948FE0C8228C2D47
:100A900090E08C30910508F091C1FC01EA5AFF4FBB
:100AA0000C945D248C2F807FCF70882311F0C29529
:100AB000C07FDD2399F0CC2309F46CC180E2810F63
:100AC000883010F0111104C08C2F0E94E80B03C075
:100AD0008C2F0E94F80B0E94310C5CC1812F0E9468
:100AE0007704CC2309F46AC180E2810F883038F1A1
:100AF000112329F18C2F0E94FE0B24C08C2F807FA4
:100B0000CF70803211F0C295C07F112319F01130DF
:100B100099F13CC08091800282FD17C0DD2349F02D
:100B2000CC2329F08C2F0E94E80B0E94310C80E02E
:100B300032C180E00E947704CC2309F43FC18C2F9E
:100B40000E94EE0B0E94310C39C1DD2349F00023D5
:100B500009F1013009F032C18C2F0E940F0C2EC117
:100B600001112CC18C2F0E940C058C2F0E941B0C94
:100B70008C2F0E94780C22C1DD2321F0063008F072
:100B80001DC108C0053008F019C115C0DD2331F0C2
:100B9000011100C18C2F0E94050510C1002359F0DE
:100BA000193309F008C1FFEF27EE83E0F150204030
:100BB0008040E1F7FEC08C2F0E940C05FFC08C2FF7
:100BC00086958695837019F0813061F0F7C0DD233A
:100BD00021F0812F9C2F937002C080E090E00E9452
:100BE000F21AF4C0DD2321F0812F9C2F937002C0F4
:100BF00080E090E00E94171BE9C06D2F812F0E94BA
:100C0000C303E4C08C2F837079F5D111DBC0412F71
:100C1000429546954770440F440F212F2F70042EA4
:100C200001C0220F0A94EAF714FF08C08FE090E099
:100C300001C0880F4A95EAF7809501C080E0C6950B
:100C4000C695C370822BC23049F058F4C13019F0F8
:100C50000E94AA07B7C00E94A407B4C00E94B007B0
:100C6000B1C00E94A107AEC0DD2319F08C2F8170A6
:100C700001C08695882309F4A5C0412F4295469569
:100C80004770440F440F212F2F70042E01C0220FF4
:100C90000A94EAF714FF08C08FE090E001C0880FC3
:100CA0004A95EAF7809501C080E0C695C695C37065
:100CB000822BC23049F058F4C13019F00E94F60777
:100CC00081C00E94F0077EC00E94FC077BC00E948A
:100CD000B90778C0CF70DD2339F08C2F0E94CB0785
:100CE000812F0E9405056EC0812F0E940C058C2F5C
:100CF0000E94D70767C0123F21F128F4103F41F04E
:100D0000113FC1F043C0133F19F1143F79F03EC0C9
:100D1000DD2341F0053008F051C08C2F8F710E9407
:100D2000E4074CC0063008F049C0F7CF809180023C
:100D300082FD18C0DD2339F08C2F8F710E94CB0704
:100D40003DC0DD23C9F38C2F8F710E94D70736C0B9
:100D5000DD2329F08C2F8F710E94C2072FC00E94C3
:100D6000BE072CC0DD2349F0CF718C2F0E94CB072A
:100D700063E08C2F0E94870C21C081E00E94A50CAB
:100D80000230E0F082E00E94A50C18C0DD2331F0B3
:100D9000002391F2812F0E94CD0310C0002399F20D
:100DA000193349F49FEFE7EEF3E09150E040F04053
:100DB000E1F700C00000812F0E94770488EF8C0DBE
:100DC000843020F40E94BD1A0E945C03DD2089F06B
:100DD0000E94DA0B80FD0DC0F70115820E94D40B32
:100DE0000E94CB07C7010E9416070E94D40B0E94E5
:100DF000D707CDB7DEB7E8E00C9490240F931F938C
:100E0000CF93DF93EC01688179818D810E94B408D2
:100E10008C010E9402080E949407B801CE010E9432
:100E20001305DF91CF911F910F910895CF93DF9319
:100E3000FC0124812223D1F0EC010E94D90281110E
:100E40000FC00E94DE0B882389F08D81882371F00A
:100E50008091800282FF0AC082E00E94A50C06C039
:100E6000CE010E94FE06CE010E94B402DF91CF9116
:100E7000089580E090E00E94F21A80E090E00E94E5
:100E8000171B0E94050C0E94310C0E9459130E94EE
:100E90003A13089580910001909101010E94EE1B88
:100EA0000E94390708950E94F50B0E944A07089591
:100EB00092959F70963079F010F4925001C09A503C
:100EC000923068F4803F69F018F4883E40F409C01D
:100ED000843F29F406C0883E20F0813F11F080E075
:100EE000089581E00895FC012481222339F0808156
:100EF00091810E94A9080E945807089580E00895F2
:100F0000A6E0B0E0E6E8F7E00C947A242696E2E06A
:100F10000C949624A7E0B0E0E0E9F7E00C947A2482
:100F20002796E2E00C949624089508950E94950770
:100F300008950E94960708950E9499078093AD0135
:100F400008950E949C0708959091AD01892B0E94FD
:100F50009C0708959091AD0189230E949C070895F4
:100F60009091AD0189270E949C0708950E949507E2
:100F700008950E94B6078093AC01089580E00E9416
:100F8000B907089591E001C0990F8A95EAF7892F72
:100F90000E94B907089521E030E001C0220F8A9530
:100FA000EAF78091AC01822B0E94B907089521E0F5
:100FB00030E001C0220F8A95EAF720958091AC01BC
:100FC00082230E94B907089521E030E001C0220F7A
:100FD0008A95EAF78091AC0182270E94B9070895AB
:100FE0009091AC01892B0E94B90708959091AC01B2
:100FF00089230E94B90708959091AC0189270E9426
:10100000B90708950895962F9770A1E001C0AA0F1F
:101010009A95EAF793E0769567959A95E1F7FB0143
:10102000EE0FFF1F6E0F7F1FFA01E60FF71F40E064
:1010300050E0682F70E090819B01042E02C036952D
:1010400027950A94E2F72170219529272A23292739
:1010500021934F5F5F4F4330510569F708959B011E
:10106000782F777043E0969587954A95E1F7FC01D4
:10107000EE0FFF1F8E0F9F1FF901E80FF91F40E0D1
:1010800050E080E0219130E0072E02C03695279590
:101090000A94E2F721703327042E01C0220F0A942C
:1010A000EAF7822B4F5F5F4F4330510559F70895A0
:1010B000282F923070F4853060F4862F622F70E014
:1010C00025E0929F600D711D112446EA51E00E94B7
:1010D00003080895923070F4853060F4292F90E071
:1010E00066EA71E035E0239F800D911D11240E9476
:1010F0002F08089580E00895CF92DF92FF920F931A
:101100001F93CF93DF936C010091AC018091AD01EF
:10111000082BC3E0D0E010E0C8010C2E02C095956A
:1011200087950A94E2F780FD04C02197A8F7F12C77
:1011300007C0FC2EB6018C2F0E94920F0197A9F3D5
:101140008F2DDF91CF911F910F91FF90DF90CF9066
:101150000895CF93DF93EC010E947C08BE010E94AA
:10116000920FDF91CF9108951F93CF93DF93EB01FF
:101170009091A501992321F0CB010E94A90813C0E9
:10118000882349F0CB010E947C08182F682FCE01DC
:101190000E94580804C0CB010E946A08182FBE01A3
:1011A000812F0E94920FDF91CF911F910895E1E06E
:1011B000F0E0DF0102C0AA0FBB1F6A95E2F7BD0194
:1011C000DF0102C0AA0FBB1F4A95E2F7AD01462B13
:1011D00001C0EE0F2A95EAF7942F9823491302C015
:1011E0008E2B0895E0958E230895242F462F682F87
:1011F0008091AC010E94D7080E94B90708951F93FF
:10120000CF93DF93C091AE0117E08091AF01C81773
:10121000A1F0D0E01C9FF0011D9FF00D1124E055BE
:10122000FE4F2081318142815381648175818681A5
:101230000E948A072196C770E8CFDF91CF911F9156
:1012400008952091E8013091E9014091EA0150911F
:10125000EB016091EC017091ED018091EE010E9433
:101260008A070895CF93DF938091EE0182958F7066
:1012700009F04EC08091ED01882309F449C08091A6
:10128000AE014091AF015091E9016091E801C09138
:10129000EA01D091EB0177E08417D1F190E0789FDB
:1012A000F001799FF00D1124DF01A055BE4F149677
:1012B0002C911497222349F111962C911197251303
:1012C00024C02C91261321C015962C91159721111D
:1012D0001CC012962D913C9113972C1B3D0B283C62
:1012E000310598F48091EE018F7080618093EE015A
:1012F000EA54FE4F80818F708061808388EE91E098
:101300000E9416070E94FF0803C001968770C4CF91
:10131000DF91CF9108952091AE019091AF0157E0F8
:101320002917A9F030E0529FF001539FF00D1124CE
:10133000E055FE4F7181761306C07081781303C0AB
:101340007581741306C02F5F3F4F2770E9CF80E08F
:10135000089581E00895A4E1B0E0E1EBF9E00C9498
:1013600070248C0186E0F801DE011F9601900D9239
:101370008A95E1F7F8018481E58098EEA92E91E045
:10138000B92E9091EC01911118C0882309F480C105
:10139000EE20D9F1C8010E947307F82E8823A9F125
:1013A00087E0F801D50101900D928A95E1F7C5011A
:1013B0000E94BA030E94320998C0F801C080D1800F
:1013C00082809380F090ED012091EA013091EB0151
:1013D000A401421B530BFF2009F406C1483C5105F0
:1013E00008F0AFC0882309F455C18091EE01282F81
:1013F000207F9091E901222361F09D1509F462C0DC
:10140000C8010E947307811173C0C8010E941607AA
:101410003FC19D1115C09091E8019C1111C0E110D0
:101420000FC08F7080618093EE010E94210988EEC9
:1014300091E00E9416078091EE01F801868326C193
:10144000E1103AC040E06D2D8C2D0E948B0940E0E8
:101450006D2D8C2D0E948B09E82E811117C1CF862E
:10146000D88A8F8598890E94A908292F22952F70E4
:10147000243020F49F70223028F009C02A502230F6
:1014800080F014C0992349F0811107C013C099233B
:1014900021F0F8019681907F69F0805E883030F409
:1014A00009C0803F38F0815F833020F0C8010E947E
:1014B0001607EF2CFE2CEEC08091EE018160809328
:1014C000EE01E4C09091E8019C119ACFE11098CF11
:1014D000F8018683C8010E94160787E0F801A8EE8C
:1014E000B1E001900D928A95E1F70E942109D2C0E6
:1014F000EE2009F48ACF2091EE01822F82958F7021
:1015000090E002978CF08091E8019091E901998731
:1015100088879B868A868091EC018C871D862E8722
:10152000CE0108960E94160787E0F801A8EEB1E008
:1015300001900D928A95E1F70E9432090E942109DB
:10154000A7C09091EE01292F207FA1F4682D9A8ADF
:10155000898AA6017A899E2D0E94800788EE91E0F3
:101560000E94160787E0F50111928A95E9F70E941B
:1015700021098CC0882309F48DC08091E9018D1167
:1015800011C08091E8018C110DC0E1100BC0F80171
:101590009683C8010E94160787E0F50111928A958B
:1015A000E9F778C0C8010E947307882309F42DCF9A
:1015B000EE2009F42ACF2091EE01822F82958F70C0
:1015C00090E002970CF4B0CF8091E8019091E9018E
:1015D0009A8389839C828B828091EC018D831E8209
:1015E0002F83CE0101969ECF483C510508F040C0A4
:1015F000882309F44DC0FE2CEE2009F406CF80911B
:10160000E9018D1127C08091E8018C1123C09091D0
:10161000EE0190FD16C0892F82958F70282F30E043
:101620002115310571F0F80196832F30310509F449
:1016300051CF8F5F982F9295907F86818F70892BE5
:1016400048CF87E0F801A8EEB1E001900D928A95AD
:10165000E1F720C0C8010E947307811165CF809116
:10166000EE0181608093EE01C8010E94160712C04E
:10167000682D9A8A898AA6017A899E2D0E94800700
:1016800087E0F50111928A95E9F72FCFF12C02C07E
:10169000FF24F3948F2D6496ECE00C948C24AEE040
:1016A000B0E0E5E5FBE00C947924288739874A8788
:1016B0005B876C877D878E87CE0108960E94AB0979
:1016C000882361F06C856623A9F1288539854A85D0
:1016D0005B857D858E850E948A072CC087E0FE0190
:1016E0003896DE01119601900D928A95E1F76C858E
:1016F000662301F12091AF0130E0C90101968770A6
:1017000099274091AE0150E084179507E1F16D8370
:1017100097E0929FD001939FB00D1124A055BE4F2A
:10172000FE01319601900D929A95E1F78093AF01F9
:101730000E94FF0817E08091AE019091AF018917D8
:1017400079F1189FC001112480559E4F0E94AB096A
:10175000882331F1E091AE011E9FF0011124E05584
:10176000FE4F208131814281538164817581868160
:101770000E948A078091AE0190E0019687709927B8
:101780008093AE01D8CF0E9453071092AF01109200
:10179000AE01E8EEF1E087E0DF011D928A95E9F7FE
:1017A0002E96E3E00C94952480910F028695869501
:1017B0008695089580910F028770089590910F0289
:1017C000977081E009F480E00895809133020895D4
:1017D00090913302892B80933302089580959091E4
:1017E00033028923809333020895109233020895BF
:1017F00090913202892B80933202089580959091C6
:1018000032028923809332020895109232020895A1
:1018100008950E94080C08950E94090C0895909163
:101820001102292F2823821729F0982B9093110257
:101830000E940C0C089590911102292F282331F059
:1018400080958923809311020E940C0C0895809149
:101850001102882329F01092110280E00E940C0CE2
:101860000895CF93DF93E0910001F0910101809101
:1018700033028083E0910001F09101019081809119
:101880003202892B808380911102882381F0E091BC
:101890000001F09101019081892B808380910001EA
:1018A000909101010E943C1B81110E94270CC09164
:1018B0000001D091010140E250E06FEE71E0CE01F5
:1018C0000E94B524892B59F080E2FE01AFEEB1E011
:1018D00001900D928A95E1F7CE010E94CA1ADF911C
:1018E000CF9108950E94080C08950E94720C0895EB
:1018F00090911002292F282331F08095892380931D
:1019000010020E94750C08950E94080C0895909191
:10191000800292FF11C098E0899F90011124262B2C
:1019200020930F020E94CB0780910F028695869527
:1019300086950E94840C08950E94CB07089510920A
:101940000F0280E00E94840C089590910F02809510
:10195000892380930F02282F277069F4981759F074
:101960009091800292FF07C08695869586950E9489
:10197000D7070E949F0C08959091800292FB222726
:1019800020F9281769F080FB92F9909380028091EA
:101990007F02909180020E94050D82E00E94A50CBA
:1019A00008958091800282FB882780F991E0892741
:1019B0000E94BC0C089581E00E94BC0C089580E058
:1019C0000E94BC0C08956FEF7FEF80E090E00E94D2
:1019D0000725089580E090E00E94D324863E9E4F24
:1019E00019F40E947B14089580E0089582E090E04D
:1019F0000E94CB24089583E090E00E94CB240895B8
:101A000084E090E00E94D3240895BC0184E090E03B
:101A10000E9407250895AB01BC018FE090E00E9471
:101A2000FB240895AB01BC0183E190E00E94FB24FC
:101A3000089560E070E0CB010E94120D089560E00F
:101A400070E0CB010E940B0D0E94190D0895A8E0D3
:101A5000B0E0EDE2FDE00C947A2466EE7EEF80E0EB
:101A600090E00E94072560E082E090E00E94E92477
:101A700060E083E090E00E94E9241092AD0160E014
:101A800074E184E090E00E94072560E086E090E049
:101A90000E94E9246FEF87E090E00E94E92440E093
:101AA00050E0BA0188E090E00E94FB2460E084E20C
:101AB00090E00E94E92460E087E190E00E94E92440
:101AC00060E08CE090E00E94E92460E08DE090E02E
:101AD0000E94E92419821A821B821C821D821E82A6
:101AE0001F82188648E050E068E170E0CE01019660
:101AF0000E94D92440E050E0BA0180E290E00E94C8
:101B0000FB2480E00E9494140E94C9140E941F0DBF
:101B10002896E2E00C9496240E94270D0895682FE1
:101B20008EE090E00E94E9240895A6E0B0E0EBE9A1
:101B3000FDE00C9478240E94B91C8C018091340241
:101B4000909135020817190781F019821A820E94B4
:101B5000B91C682F49815A81792F80E090E00E945A
:101B6000870310933502009334022696E4E00C9428
:101B700094240E94C51C60933C0270933D028093A4
:101B80003E0290933F026093380270933902809333
:101B90003A0290933B02089581E0089581E0089510
:101BA0000E94CE0D089508950E94D30D08950E94BD
:101BB000D30D08950E94D70D08950E94D30D089566
:101BC0000E94DD0D08950E94D30D089586E790E1EF
:101BD0000E94B31A0E94E30D0E94E00D08950E9436
:101BE000D40D0E94D30D08950E9492100E945B03B1
:101BF00008950E94B01C0E94D9140E9455110E94A1
:101C0000F40D0E94DA0D0895A6E0B0E0EAE0FEE0EF
:101C10000C9471240E94CC0D811103C00E94950D7B
:101C200050C00E9465111091360280E00E94AD10F4
:101C3000811307C01091370281E00E94AD10181780
:101C400069F38091400281FD0E94B3100E94D00D83
:101C5000A82E86E3E82E82E0F82E10E099249394D3
:101C6000812F0E94AD10B82EF701C080C82609F15F
:101C700000E0DD24D3948C2D8D21A9F0AA2099F0C9
:101C800009831A830E94B91C9C838B839D8291E0F7
:101C90008B2D8D2109F490E049815A816B817C81E3
:101CA0008D810E9487030F5FDD0C053021F7F7015E
:101CB000B0821F5FFFEFEF1AFF0A123089F60E9411
:101CC000B90D0E947B130E946E032696EBE00C94E4
:101CD0008D241F93CF93DF930E94970FEC01C115C2
:101CE00080E5D807E8F5C11590E4D90708F0A8C049
:101CF000C03ED10530F5CD3CD10508F094C0C83ABE
:101D0000D10578F4C53AD10508F083C0C130D105BA
:101D100009F47CC008F4F2C0C430D10508F0F1C069
:101D2000EDC0C33CD10508F0E9C0C85AD0E0CC0FE3
:101D3000DD1FC15BDE4F0990D881C02DCE019464B8
:101D4000E1C0C11580E2D80708F0CBC0C11591E011
:101D5000D90708F06BC0C83ED10508F4D2C0CEC088
:101D6000C03682E5D80728F5C03492E5D90708F0D7
:101D700079C0C03282E5D80708F06CC0C11592E581
:101D8000D90708F481C04C2F4695469580E2489FBC
:101D9000A0011124C37021E030E0C90102C0880F06
:101DA000991FCA95E2F7EA01C82BD92BCE019D688D
:101DB000A9C0C03A82E5D807B8F48C2F8F71C0381B
:101DC00092E5D90708F07BC08695869590E2899FB9
:101DD00090011124C37081E090E002C0880F991F28
:101DE000CA95E2F79A6868C0C03C82E5D80708F453
:101DF0006DC0C03E92E5D90708F080C0CF71DD27E5
:101E0000DC2FCC27CE01806F906A7CC081E090E00F
:101E100079C0C55AD0E0CB57DE4F8881C82FD0E0BB
:101E2000CE0190646FC0CE0190656CC08D2F0E9472
:101E30003310182FCE0199270E94970F1F715CC095
:101E4000CE0199270E94970FCC27DF70D06A8C2B88
:101E50009D2B58C0CF71D0E0DC2FCC27CE01816FF5
:101E6000906A50C08C2F8F718695869590E2899FDD
:101E700090011124C37081E090E002C0880F991F87
:101E8000CA95E2F79C6818C08C2F8F710E9433109E
:101E900095E0D695C7959A95E1F7CF70D0E0DC2F05
:101EA000CC27282F30E084FF05C084E0220F331FA9
:101EB0008A95E1F7D069CE01822B932B23C090E065
:101EC000D82FCC27CE01846F906A1CC08C2F8F71C5
:101ED0000E9433108F7190E0D82FCC27CE019062F2
:101EE00011C08D2F8F710E943310182FCE019927AA
:101EF0000E94970F1F719062912B04C080E090E0C8
:101F000001C0CE01DF91CF911F910895723038F456
:101F1000653028F4462F672F0E94A318089580E0AB
:101F200090E008950E94860F0E94690E08958238FD
:101F3000910569F1B0F48133910509F475C048F455
:101F40008932910509F467C08A32910509F471C09C
:101F500008958533910509F459C089339105B9F085
:101F60000895833E910589F138F4803E9105D1F0C2
:101F7000823E910529F10895863E9105C9F1873E7B
:101F80009105D9F1843E910509F06CC027C02091DC
:101F90007F0220FD57C021FD55C02091800223FD06
:101FA0005BC0089580917F0280FD48C080918002CF
:101FB00080FF48C080917F0284FD46C083EE51C0FF
:101FC00080917F0282FF3CC0F5CF80917F0282FD2D
:101FD00037C08091800280FD35C0ECCF80918002B7
:101FE00081FF36C080917F0284FD2EC087EE39C00C
:101FF00080917F0283FF2AC0F5CF80917F0283FD0D
:1020000025C08091800281FD23C0ECCF80917F02AA
:1020100085FD22C01FC080917F0285FD1BC080917D
:10202000800283FF19C00AC080917F0286FD16C01E
:1020300017C080917F0286FD13C010C089E311C0D4
:1020400082EE0FC080EE0DC080E00BC086EE09C0AE
:1020500084EE07C085E305C089E203C08AE201C0BF
:1020600081E390E0089590917F0292FF0DC0282FA8
:102070002871283019F4877F846006C0282F2471C6
:10208000243011F48B7F886093FF0DC0282F2871B6
:10209000283119F4877E846106C0282F24712431E9
:1020A00011F48B7E88612091800220FF0DC0382FB3
:1020B0003871383019F4877F816006C0382F31714C
:1020C000313011F48E7F886021FF0DC0282F2871D8
:1020D000283119F4877E816106C0282F21712131B2
:1020E00011F48E7E886194FD877E089580E00895C6
:1020F0000E94E30C08950E9465118FE39CE901970B
:10210000F1F700C000000E94651180E00E94AD1050
:1021100080FF04C00E9478100E94061D08950E944E
:102120007B1008950E94EA0C811102C00E948C0D60
:102130000E94F60C809340020E94000D9093800252
:1021400080937F020E948F100E94FB0C0E94A107C7
:102150008091AC010E94B6070895E82FF0E0ED579A
:10216000FD4F80810895089580EA8A95F1F70895DA
:1021700000C008950E94B410089508950E94BD10F3
:1021800008950E94BE1008950E94BD1008950E94F7
:10219000C4100895F894E82FE295EF70F0E031A1B3
:1021A000282F2F7081E090E001C0880F2A95EAF770
:1021B000982F9095932391A392A1892B82A3789431
:1021C0000895CF93DF9385E30E94CA1084E30E94B1
:1021D000CA10C8E8D1E089918F3F11F00E94CA105F
:1021E00081E0CD38D807B9F7DF91CF910895A0E00D
:1021F000B0E0EDEFF0E10C9474248C01C62FD0E038
:10220000CE0183579E4F7C01FC0190819F3F09F4D2
:1022100047C0D62EF894E92FE295EF70F0E081A147
:102220009F7021E030E001C0220F9A95EAF7822BDF
:1022300081A382A12095282322A378940E94B8101C
:10224000E8E8F1E04DE851E031E0C12C21912F3F69
:1022500089F0A22FA295AF70B0E090968C9190E09B
:102260002F7002C0959587952A95E2F780FD02C0F0
:10227000832F01C080E0C82A330F4E175F0731F764
:10228000F70180818F3F11F00E94CA1061E0C110F8
:1022900001C060E08D2D0E94BA10C00FD11FC8820E
:1022A000CDB7DEB7E8E00C9490240E94E1101092C4
:1022B000840210928302109282021092810282E0C4
:1022C0000E949B110E94C7100895A2E0B0E0EBE6C7
:1022D000F1E10C9479241A82198260E0CE01019612
:1022E0000E94F71061E0CE0101960E94F71042E0D3
:1022F00050E0BE016F5F7F4F81E892E00E94B524FD
:1023000021E0009709F420E0892B31F089819A813E
:10231000909382028093810242E063E872E081E858
:1023200092E00E949C11182F0E94C110812F2296CA
:10233000E3E00C9495240895EF92FF920F931F937E
:10234000CF93DF937C018B01C42F222349F081E0DE
:10235000809343020E94B91C9093420280934102F1
:1023600080914302811102C080E01AC08091410235
:10237000909142020E94D11C0597B0F3D0E0AE01CB
:10238000B701C8010E94B524892B39F0AE01B7010D
:10239000C8010E94C22481E001C080E01092430283
:1023A000CDB7DEB7E6E00C9492240E94A61E0E94F0
:1023B000F90D0E94B31E08950E94B81E0E94040EDB
:1023C0000E94D21E08950E94501C0E948C1E0E94E2
:1023D000E60D0E94D5110E94DC110E94EF0DFBCF8B
:1023E00080914A0280FF06C06091070170E0660F8D
:1023F000771F26C081FF04C06091070184E005C0FB
:1024000082FF07C06091070188E0689FB001112436
:1024100017C0909149029923D1F060910601961757
:1024200088F72091070188E0289F90011124929F4E
:10243000A001939F500D112470E0CA010E9449240D
:102440006038710540F46115710519F406C068E043
:1024500070E0862F08958FE7089581E008958091B8
:102460004A0280FF08C06091030170E0759567958E
:102470007595679521C081FF06C06091030170E0EA
:102480007595679519C082FF04C06091030170E0E3
:1024900010C090914802992399F06091020196171B
:1024A000A0F780910301899FC001112470E00E9470
:1024B00049246038710540F46115710519F406C0AE
:1024C00061E070E0862F08958FE7089581E0089518
:1024D0008D3C21F40E94F011819504C08E3C29F4BA
:1024E0000E94F01180934E0208958F3C21F40E94C7
:1024F000F011819504C0803D29F40E94F011809371
:102500004D020895893D19F40E942F1205C08A3D9D
:1025100031F40E942F12819580934F0208958B3DD4
:1025200021F40E942F12819504C08C3D29F40E9451
:102530002F128093500208959FE2980F983078F4FC
:1025400021E030E0A90102C0440F551F9A95E2F73F
:10255000CA0190914C02892B80934C0208958D3DC5
:1025600021F480914A0281600BC08E3D21F480915C
:102570004A02826005C08F3D29F480914A0284603E
:1025800080934A0208958D3C39F490914E0297FF52
:1025900035C010924E0259C08E3C29F490914E02E3
:1025A0001916BCF32BC090914D028F3C29F497FF74
:1025B00025C010924D0249C0803D19F41916CCF384
:1025C0001DC090914F02893D29F41916BCF4109258
:1025D0004F023BC08A3D19F497FF10C0F8CF8B3DE6
:1025E00039F49091500297FF09C0109250022DC00B
:1025F0008C3D21F4909150021916BCF39FE2980F84
:10260000983080F421E030E0A90102C0440F551F4A
:102610009A95E2F7CA01809590914C0289238093A4
:102620004C0213C08D3D21F480914A028E7F0BC075
:102630008E3D21F480914A028D7F05C08F3D29F4A3
:1026400080914A028B7F80934A0280914D028111D2
:1026500006C080914E02811102C010924902809101
:102660004F02811106C080915002811102C0109268
:10267000480208950E94B91C20914D02211104C006
:1026800020914E02222321F090934702809346022C
:1026900020914F02211104C020915002222321F0E9
:1026A00090934502809344028BE492E00E94E41AE6
:1026B0000895EBE4F2E086E0DF011D928A95E9F7E8
:1026C000109249021092480210924A020895FC01A9
:1026D000828181110DC0838181110AC084818111A1
:1026E00007C091E08581811101C090E0892F01C070
:1026F00081E081700895A6E0B0E0E1E8F3E10C9498
:10270000792486E0EBE4F2E0DE01119601900D926F
:102710008A95E1F710924D0210924E0210924F02EC
:10272000109250028B81811104C08C81882309F49E
:102730005FC080914602909147020E94D11CAC017B
:1027400090914902992339F02091080130E0241733
:10275000350758F04DC0209109018AE0289F90016B
:1027600011242417350718F043C09F3F19F09F5FCD
:10277000909349021B81112361F00E94F011111600
:1027800014F09FEF01C091E0989F902D1124909339
:102790004D021C81112361F00E94F011111614F0FA
:1027A0009FEF01C091E0989F902D112490934E02CD
:1027B00030914D023323E1F020914E022223C1F0EB
:1027C00045EB3403C0011124992319F090934D0275
:1027D00003C081E080934D0235EB2303C001112437
:1027E000992319F090934E0203C081E080934E022A
:1027F0008D81811104C08E81882309F45FC080918E
:102800004402909145020E94D11CAC019091480273
:10281000992339F02091040130E02417350758F04E
:102820004DC0209105018AE0289F900111242417B2
:10283000350718F043C09F3F19F09F5F90934802FF
:102840001D81112361F00E942F12111614F09FEFC9
:1028500001C091E0989F902D112490934F021E810A
:10286000112361F00E942F12111614F09FEF01C086
:1028700091E0989F902D11249093500230914F0237
:102880003323E1F0209150022223C1F045EB3403C1
:10289000C0011124992319F090934F0203C081E0E5
:1028A00080934F0235EB2303C0011124992319F0C3
:1028B0009093500203C081E080935002BE016F5F8D
:1028C0007F4F8BE492E00E94001C811105C08BE4D5
:1028D00092E00E94671381110E943A1386E0FE0184
:1028E0003196ABE4B2E001900D928A95E1F726961D
:1028F000E3E00C94952485E290E00E94CB248232A0
:1029000081F486E290E00E94CB24813151F487E289
:1029100090E00E94CB2491E0843009F090E0892F70
:1029200001C080E081700895CF93C82F811102C04B
:102930006FEF01C062E285E290E00E94E924C111DC
:1029400002C06FEF01C061E186E290E00E94E924DD
:10295000C11102C06FEF01C064E087E290E00E9405
:10296000E924CF910895089588E290E00E94CB2455
:10297000682F70E080E090E008950895CF93C62F0F
:102980000E94BD146C2F88E290E00E94E924CF9150
:10299000089580E00E94941460E070E0CB010E94F2
:1029A000BE140E9438180E94F81881E00E94941406
:1029B00008950E94B3140E94B4140E94BD140E9492
:1029C0007B14811102C00E94C914089508959C01CE
:1029D000FB018581882351F0A901575740385105E3
:1029E00030F4C9010E94081980E0089581E008953B
:1029F0002FEFFC01208308950E94F814089580E0D1
:102A00000895A0E0B0E0E7E0F5E10C947224EC0159
:102A1000F62E0E94FF148111BEC0E8818E2F90E037
:102A2000FC013197E331F10508F0AFC0EE59FF4FDB
:102A30000C945D2419828CE06BC08981823089F00E
:102A400030F4813009F0A1C00E94C51C0CC0833055
:102A500079F0843009F099C01A821B821C821D8291
:102A600096C00E94B4149A838B837C836D838FC03D
:102A7000EA806E0183E0C80ED11C00E010E0AE2CAD
:102A8000B12CC501800F911F029708F080C08E2DD8
:102A9000800F0E94AD10F60181936F010F5F1F4FF1
:102AA0000C31110571F773C08981823039F085309E
:102AB00009F06BC08A810E94E61469C06A817B813B
:102AC0008C819D810E9463240E94BE1460C04B8152
:102AD0006A8189810E94FC179C838D8358C02C8158
:102AE0003D813227232732274B816A8189810E94C9
:102AF0001D184DC00E9438184AC06F2DCE010E948B
:102B0000FC1445C00E94AF1824C00E94B1189983DC
:102B10008A833DC06B8170E089819A81AE014C5FF0
:102B20005F4F9827892798270E94B41830C06B817F
:102B300070E089819A81AE014C5F5F4F98278927A9
:102B400098270E94D71823C00E94F81820C00E941E
:102B5000E91789831CC06B8170E089819A81AE017D
:102B60004C5F5F4F9827892798270E9463180FC0F2
:102B70006B8170E089819A81AE014C5F5F4F98272D
:102B8000892798270E94841802C08FEF88836F2DB1
:102B9000CE010E947B1DCDB7DEB7EAE00C948E24F7
:102BA000CF93DF93FC01DB0115968C91882309F408
:102BB000DDC09F0130572332310508F0D8C0EF0146
:102BC0000E94000D9093800280937F02FE01E150ED
:102BD000F047E232F10520F4EB58FF4F0C945D24EE
:102BE00080917F028160AAC0809180028860B2C01B
:102BF00080917F028260A2C080917F0220C080917C
:102C00007F0288609BC0809180021EC080918002FC
:102C10008260A0C080917F02806190C080917F021D
:102C200080628CC080917F02806488C00E945307BC
:102C300080917F02806882C080917F02886084607A
:102C40007DC0809180028260816084C080917F021B
:102C50008E7F74C080918002877F7CC080917F02CC
:102C60008D7F6CC080917F0220C080917F02877F22
:102C700065C0809180021EC0809180028D7F6AC0F5
:102C800080917F028F7E5AC080917F028F7D56C0D7
:102C900080917F028F7B52C00E94530780917F02F8
:102CA0008F774CC080917F02877F8B7F47C0809158
:102CB00080028D7F8E7F4EC080917F0282FB222713
:102CC00020F991E0922790FB82F990FB83F936C0BE
:102CD00080918002982F909591708E7F892B90FB28
:102CE00081F938C080917F0286FB222720F991E08C
:102CF000922790FB86F922C00E94530780917F02A1
:102D000087FB222720F991E0922790FB87F916C0D4
:102D100081E001C080E00E948F0D1EC080917F0283
:102D200084FB222720F991E0922790FB84F906C0CA
:102D300080917F02982F909590FB80F980937F027D
:102D40000BC08091800283FB222720F991E092271B
:102D500090FB83F98093800280917F0290918002A2
:102D60000E94050D0E94530780E001C081E0DF91C1
:102D7000CF910895A0E0B0E0E0ECF6E10C9475246A
:102D8000E82FF0E0EF56FE4FD490282F2695269599
:102D9000269530E0F901EF5CFD4F0491877010E05B
:102DA000082E02C0159507950A94E2F701701127C5
:102DB000F901EF5DFD4FE490F12C082E02C0F5946F
:102DC000E7940A94E2F791E0E922FF24F901EF5E2B
:102DD000FD4FC491D0E002C0D595C7958A95E2F722
:102DE000C170DD270115110519F081EE0E94CD0398
:102DF000E114F10419F086EE0E94CD038D2D0E949E
:102E0000FB04E114F10419F086EE0E947704011529
:102E1000110519F081EE0E947704CD2B19F08CE298
:102E20000E94FB04CDB7DEB7E7E00C949124EF924B
:102E3000FF920F931F93CF93DF93EC01162F0AE0BD
:102E40008881882309F455C0813009F043C0898105
:102E5000813041F47E0182E0E80EF11C8A810E94FB
:102E6000FB0409C0823049F47E01E2E0EE0EF11C61
:102E70008A810E94CD03E7012FC0833041F47E0197
:102E8000F2E0EF0EF11C8A810E947704F4CF8430C7
:102E900011F0219621C02A81229680E090E030E056
:102EA000205331092A30310558F4089FA001099FA9
:102EB000500D1124C901840F951F21962881EFCF51
:102EC000009751F0EFE9FFE03197F1F700C0000003
:102ED0000197F6CF0E94BA162196812F882309F414
:102EE000AFCFEFE9FFE03197F1F700C0000081506C
:102EF000F5CFCDB7DEB7E6E00C949224EF92FF92C7
:102F00000F931F93CF93DF938C01F62E8AE0E82E68
:102F1000F8018491882309F457C0813009F042C038
:102F2000E8012196FE018491813031F42196FE0161
:102F300084910E94FB0439C0823039F4E801229662
:102F4000FE0184910E94CD0330C0833039F4E80142
:102F50002296FE0184910E94770427C0843029F5CF
:102F6000E8012296FE01249180E090E030E02053B9
:102F700031092A30310560F4E89EA001E99E500D28
:102F80001124C901840F951F2196FE012491EECFD3
:102F9000009759F0EFE9FFE03197F1F700C000002A
:102FA0000197F6CF0E94BA16E8018E010F5F1F4FFE
:102FB0008F2D882309F4ACCFEFE9FFE03197F1F7CB
:102FC00000C000008150F5CFCDB7DEB7E6E00C942D
:102FD000922484E0089550E0440F551F2AE0629F38
:102FE000400D511D11249A0164E1869F200D311D71
:102FF0001124C901899608950F931F93CF93DF93EE
:103000008430A0F4623090F4453080F40E94EB17D5
:103010008C010E94CB2490E0D82FCC27C8010196C8
:103020000E94CB249E01282BC90102C080E090E0C1
:10303000DF91CF911F910F9108950F931F93CF931D
:10304000DF93843080F4623070F4453060F4E9013D
:103050000E94EB178C016D2F0E94E9246C2FC80190
:1030600001960E94E924DF91CF911F910F9108955D
:103070000F931F93CF93DF93C0E0D0E010E000E008
:103080000E94450290E0C817D9073CF4402F612FF9
:103090008C2F0E9447029C0102C021E030E0402FAB
:1030A000612F8C2F0E941D180F5F053049F71F5F9D
:1030B000123029F72196C430D10501F7DF91CF9165
:1030C0001F910F910895EF92FF920F931F93CF934B
:1030D000DF93EA017A01E60EF71E8C01C80189969A
:1030E000CE15DF0561F00035110520F40E94CB24D8
:1030F000888301C0188221960F5F1F4FEFCFCDB795
:10310000DEB7E6E00C949224EF92FF920F931F93A8
:10311000CF93DF93EA017A01E60EF71E8C01C80116
:103120008996CE15DF0551F00035110518F4688138
:103130000E94E92421960F5F1F4FF1CFCDB7DEB774
:10314000E6E00C949224843038F4623028F4453060
:1031500018F40E94FC17089580E090E0089580E143
:10316000089587E893E00895EF92FF920F931F93DD
:10317000CF93DF93EA017A01E60EF71E8C01C801B6
:1031800087589F4FCE15DF0569F0073823E01207F7
:1031900020F40E94CB24888301C0188221960F5FFF
:1031A0001F4FEDCFCDB7DEB7E6E00C949224EF923F
:1031B000FF920F931F93CF93DF93EA017A01E60EFC
:1031C000F71E8C01C80187589F4FCE15DF0559F0B7
:1031D000073823E0120718F468810E94E924219639
:1031E0000F5F1F4FEFCFCDB7DEB7E6E00C94922410
:1031F000CF93DF93C9E7D0E060E0CE010E94E924DD
:103200002196C11584E0D807B9F7DF91CF910895D1
:10321000A8E0B0E0EEE0F9E10C947024F82E8FE025
:103220008F1508F474C08FEF93E00E94CB248111B6
:103230006EC009E710E0FF2071F0011594E0190756
:1032400009F465C0C8010E94CB24811101C0FA9421
:103250000F5F1F4FF0CFFE0131966F0188E0119292
:103260008A95E9F77801FFEFEF1AFF0AC8010E947B
:10327000CB2489831A82882309F449C0813009F05C
:1032800040C0580182E0A80EB11CC7010E94CB24A7
:103290008A838823E1F19FEF980F933060F47801DF
:1032A00093E0E90EF11CC5010E94CB248B83882397
:1032B00071F11C8226C0843019F54E01E3E08E0EB8
:1032C000911C02E010E07501FFEFEF1AFF0AC50143
:1032D0000E94CB24F40181934F018823C1F08C37E5
:1032E00041F4E2E0F0E0EC0FFD1FE00FF11F10826F
:1032F00008C00F5F1F4F57010730110521F707C0A6
:10330000750160E0C6010E9417178701ABCF2896B0
:10331000ECE00C948C24CF93DF9386319C4741F5ED
:10332000EB010E94E50B982F8D81209100013091D7
:103330000101882379F09A7A81E009F480E0809392
:103340005102911102C069E201C065E3C9010E9406
:10335000D21B0AC080915102811102C069E201C0F2
:1033600065E3C9010E94E01B0E94310C80E001C0AE
:1033700081E0DF91CF9108950F931F93CF93DF9357
:10338000C42FD22FFC0185818823B1F040935402D1
:103390000E94B91C909353028093520280E28C0FDA
:1033A000883008F04DC0C77081E001C0880FCA9511
:1033B000EAF70E94050544C080915402481330C0CA
:1033C00080915202909153020E94D11C883C910539
:1033D00038F510E21D0FCD17B9F080E28C0F883060
:1033E00040F4C77081E001C0880FCA95EAF70E94D7
:1033F0000C05183010F581E09D2F977001C0880FE3
:103400009A95EAF70E940505802F0E94FB04183068
:10341000B8F4D77081E001C0880FDA95EAF70AC0E6
:1034200080E28C0F883060F4C77081E001C0880FA3
:10343000CA95EAF70E940C0503C0802F0E94FB0486
:10344000DF91CF911F910F9108950F93FC01E851E7
:10345000FC47E730F10590F5CB01E956FF4F0C949E
:103460005D2406E221EE41EE6AE17CE723C007E23B
:1034700025EE45EE6BE17CE71DC006E221EE40EE55
:1034800068E17CE717C007E225EE44EE69E17CE7DE
:1034900011C006E221EE42EE6CE17CE70BC007E2D0
:1034A00025EE46EE6DE17CE705C008E221E045EE41
:1034B0006EE17CE70E94BC1980E008C0FB018581B9
:1034C000882319F01092540201C081E00F910895F1
:1034D0001F93CF93DF9387372CE7920721F088372C
:1034E0009C4759F031C0FB01C581CC2319F00E94E3
:1034F000AA1A09C00E94AA1A18C0FB01C581CC23D0
:1035000091F00E94AD1A0E94CB070E94B01AD82FEA
:103510000E94AD1AC82F0E94AA1A4D2F6C2F0E942C
:10352000F508C0E012C00E94AD1A0E94D7070E94A1
:10353000B01A182F0E94AD1AD82F0E94AA1A412F34
:103540006D2F0E94F50801C0C1E08C2FDF91CF9153
:103550001F91089580910C01089580910B010895A9
:1035600080910A01089590939F0180939E01089590
:1035700090935A02809359020895E0915902F09174
:103580005A02309729F00190F081E02D09950895B5
:1035900080E00895FC01A0915902B0915A02109761
:1035A00091F080911501882341F080917F0287FF7F
:1035B00004C08081818386E08083CF011296ED91E3
:1035C000FC91139709950895E0915902F0915A02E0
:1035D000309739F022E0DC012C930480F581E02D56
:1035E00009950895A3E0B0E0E8EFFAE10C947A249D
:1035F000209157023091580228173907A1F0909373
:10360000580280935702E0915902F0915A02309784
:1036100051F023E029839B838A830680F781E02D84
:10362000CE01019609952396E2E00C949624A3E03E
:10363000B0E0EDE1FBE10C947A2420915502309149
:10364000560228173907A1F090935602809355022D
:10365000E0915902F0915A02309751F024E0298309
:103660009B838A830680F781E02DCE010196099520
:103670002396E2E00C949624FC0132968091150189
:10368000882331F080917F0287FF02C09EE101C054
:1036900096E080E0915028F021912223D9F38F5FAA
:1036A000F9CF0895662351F1209115012223E9F005
:1036B00020917F0227FF19C0462F469546954695D3
:1036C0004E31E0F4677021E030E002C0220F331F7A
:1036D0006A95E2F7FC01E40FF11D828190E0282356
:1036E000392381E0232B69F409C0FC013296089646
:1036F0002191621729F0E817F907D1F780E00895C2
:1037000081E008959C01FC0132969FEF80E0419199
:10371000461789F09F3F19F4411101C0982F8F5F20
:103720008630A9F79F3F39F0F901E90FF11D97FDA8
:10373000FA956283089508959C012A5F3F4FFC012A
:103740004281461301C01282019682179307B9F78E
:103750000895262F2695269526952E3168F4FC018E
:10376000E20FF11D677021E030E001C0220F6A9581
:10377000EAF78281282B22830895262F2695269505
:1037800026952E3170F4FC01E20FF11D677021E0E7
:1037900030E001C0220F6A95EAF720958281282344
:1037A0002283089520911501222339F020917F0270
:1037B00027FF03C00E94A91B08950E94821B089541
:1037C00020911501222339F020917F0227FF03C0A9
:1037D0000E94BD1B08950E949C1B08952091150115
:1037E000FC013296222331F080917F0287FF02C0D4
:1037F0008EE101C086E0DF011D928A95E9F7089508
:1038000046E050E00E94B52421E0892B09F420E035
:10381000822F089508950E940A1C089583E08093E2
:103820005B020E940B1C0895811102C081E001C05F
:1038300082E080935B020E940B1C08950E94141C7E
:10384000089581E080935B020E940B1C08950E9402
:10385000211C089508950E942A1C08950E942B1C83
:1038600008950E942A1C08950E942A1C08950E940F
:103870002A1C08950E94341C0E9465110E94311C6C
:1038800080E00E94AD10811108C081E00E94AD105F
:1038900091E0811103C090E001C091E0892F08956B
:1038A00085B7806885BF85B7806885BF08951F92FA
:1038B0000F920FB60F9211248F939F93AF93BF93E4
:1038C00080915C02811113C08091850290918602E3
:1038D000A0918702B09188024196A11DB11D8093ED
:1038E000850290938602A0938702B0938802BF91CD
:1038F000AF919F918F910F900FBE0F901F901895D1
:1039000080918D02843031F10E943E0310925C025E
:1039100020E488E190E00FB6F894A89580936000C9
:103920000FBE2093600083B7817F846083BF83B71D
:10393000816083BF7894889583B78E7F83BF0FB6ED
:10394000F894A8958091600088618093600010923F
:1039500060000FBE08950E9453070E94430308951C
:1039600082E084BD93E095BD9AEF97BD80936E0091
:1039700008952FB7F8948091850290918602A091C6
:103980008702B09188022FBF08952FB7F8946091F5
:1039900085027091860280918702909188022FBFE4
:1039A00008959C014FB7F89480918502909186020A
:1039B000A0918702B09188024FBF821B930B08959C
:1039C00078941F920F920FB60F9211248F939F93AA
:1039D000AF93BF938091850290918602A091870258
:1039E000B09188020196A11DB11D8093850290932C
:1039F0008602A0938702B0938802BF91AF919F91F6
:103A00008F910F900FBE0F901F90189587E797E743
:103A100090930108809300089AE088E10FB6F8942B
:103A2000A895809360000FBE90936000FFCF9AE04E
:103A300088E10FB6F894A895809360000FBE90932C
:103A40006000FFCF80917D0208959B0190918D02CF
:103A50009430F1F48F708093E9008FEF9091E8003B
:103A6000815095FD06C095ED9A95F1F70000811102
:103A7000F5CF8091E80085FF0BC0BA01C90140E095
:103A800050E00E94761F8091E8008E778093E800D6
:103A9000089543E050E0BC0184E00E94251D089594
:103AA00046E050E0BC0184E00E94251D0895CF93BC
:103AB000DF93EC0180911501811105C048E050E0D1
:103AC000BE0181E00BC080917F0287FF03C040E20E
:103AD00084E002C048E081E050E0BE010E94251D64
:103AE00080E2FE01ADE5B2E001900D928A95E1F72A
:103AF000DF91CF910895603231F4BC0140E250E093
:103B000082E00E94251D089580918C02811109C0D8
:103B10000E9446210E94A3218091E200846080934C
:103B2000E200089510928C0208950E94271C0895C7
:103B30006091890281E0611101C080E00E940E1C49
:103B4000089590918D0281E0943009F080E06091B9
:103B500089020E94141C089542E061EC81E00E94F9
:103B6000BF2042E261EC84E00E94BF2042E261ECAF
:103B700082E00E94BF2042E260EC83E00E94BF200E
:103B800090918D0281E0943009F080E0609189028B
:103B90000E941E1C089580918F02833009F463C037
:103BA00030F4813071F0823009F49DC008958A307C
:103BB00009F489C08B3009F46EC0893009F0ABC0BC
:103BC00020C080918E02813A09F0A5C08091E80062
:103BD000877F8093E8008091920290919302892BD5
:103BE00021F460E28DE592E003C060E080E090E0C7
:103BF00070E00E9400208091E8008B778093E800BD
:103C0000089580918E02813209F085C080919202E0
:103C100090919302009719F0029709F07CC080916F
:103C2000E800877F8093E8008091E80082FD05C06E
:103C300080918D028111F8CF6EC02091F3008091A8
:103C4000F20090E0922B029731F48091F1008130E4
:103C500011F0863021F48091F10080937D028091F3
:103C6000E8008B7754C080918E02813A09F053C0EE
:103C70008091920290919302892B09F04CC080911F
:103C8000E800877F8093E8008091E80080FFFCCF08
:103C90008091150137C080918E028132E1F58091CB
:103CA000920290919302892BB1F58091E800877F71
:103CB0008093E8000E94F420809190028093150187
:103CC0000E945307089580918E02813221F58091E0
:103CD000E800877F8093E8000E94F42080919102A1
:103CE00080937E02089580918E02813AA1F48091A2
:103CF000E800877F8093E8008091E80080FFFCCF98
:103D000080917E028093F1008091E8008E7780930D
:103D1000E8000E94F420089584B7877F84BF0FB61F
:103D2000F894A8958091600088618093600010925B
:103D300060000FBE90E080E80FB6F89480936100B9
:103D4000909361000FBE0E94211C08950E9446219D
:103D50000E94A321E2EEF0E0808184608083789469
:103D60000E942E2408958DE091E00E94B81A0895D3
:103D700080918D028530A9F480918D02853079F48F
:103D80000E94801C80918B028823B1F30E943A1C10
:103D9000882391F30E94601F0E945307EDCF0E9479
:103DA000AB1C0895A0E2B0E0E8EDFEE10C947A24AB
:103DB00080918D02843011F583E08093E900809139
:103DC000E80082FF1BC08091E80085FF0AC040E048
:103DD00050E060E270E0CE0101960E94BB1F91E0CE
:103DE00001C090E08091E8008B778093E8009923F0
:103DF00029F060E2CE0101960E940115A096E2E052
:103E00000C9496249A0140919402509195020E943C
:103E10000A1F0895492F552743305105C9F060F412
:103E20004130510581F04230510509F041C08BE528
:103E300090E041E952E040C041325105E1F04232A8
:103E4000510531F135C082E190E04CEE52E034C0D2
:103E500099278130910549F028F0029749F5E1E46E
:103E6000F2E005C0EDE8F2E002C0E5E6F2E08491A0
:103E700090E0AF0121C063307105D0F4660F771F69
:103E8000FB01E856FE4F4081518189E090E014C06B
:103E90006330710568F4FB01EE0FFF1FEE56FE4F15
:103EA00040815181FB01E157FE4F808190E004C0C9
:103EB00080E090E040E050E0F901518340830895B4
:103EC00080E189BD82E189BD09B400FEFDCF80910A
:103ED000D8008F7D8093D8008091E000826080932D
:103EE000E0008091E00081FDFCCF0895A0E0B0E00B
:103EF000ECE7FFE10C947424EC018B017A010E9441
:103F00001321811133C0E114F10439F0F7018081EC
:103F10009181081B190BC80FD91FC12CD12C011579
:103F2000110519F18091E80085FD16C08091E80027
:103F30008E778093E800E114F10449F0F701808165
:103F40009181C80ED91ED182C08285E00FC00E9427
:103F50001321882321F30AC089918093F100015035
:103F60001109FFEFCF1ADF0ADACF80E0CDB7DEB755
:103F7000E8E00C949024A0E0B0E0E1ECFFE10C94C8
:103F80007424EC018B017A010E941321811133C04A
:103F9000E114F10439F0F70180819181081B190BBC
:103FA000C80FD91FC12CD12C0115110519F1809111
:103FB000E80085FD16C08091E8008B778093E800CB
:103FC000E114F10449F0F70180819181C80ED91EF6
:103FD000D182C08285E00FC00E941321882321F383
:103FE0000AC08091F100899301501109FFEFCF1AA7
:103FF000DF0ADACF80E0CDB7DEB7E8E00C9490249A
:1040000020919402309195022617370748F06115E8
:10401000710539F42091E8002E772093E80001C063
:10402000B901FC0120E06115710579F180918D02E3
:104030008823F1F18530F1F18091E80083FD3CC0E7
:104040008091E80082FD2EC08091E80080FFEBCFD8
:104050002091F3008091F20090E0922B61157105A0
:1040600051F08830910538F421912093F10061508E
:1040700071090196F3CF21E0089709F020E08091C3
:10408000E8008E778093E800CECF2111CFCF0AC011
:1040900080918D02882361F0853061F08091E80085
:1040A00083FD0AC08091E80082FFF2CF80E008958E
:1040B00082E0089583E0089581E0089520919402BC
:1040C000309195022617370748F06115710539F4CC
:1040D0002091E8002E772093E80001C0B901FC018F
:1040E00020E06115710591F180918D02882309F41A
:1040F00040C0853009F43FC08091E80083FD3DC099
:104100008091E80082FD2FC08091E80080FFE9CF18
:104110002091F3008091F20090E0922B61157105DF
:1041200059F08830910540F424912093F1003196A4
:10413000615071090196F2CF21E0089709F020E063
:104140008091E8008E778093E800CBCF2111CCCF0F
:104150000AC080918D02882361F0853061F08091E2
:10416000E80083FD0AC08091E80082FFF2CF80E082
:10417000089582E0089583E0089581E00895982FDE
:10418000973068F59093E900981739F07091EC003A
:104190002091ED005091F00003C0242F762F50E0C5
:1041A00021FD02C09F5FECCF3091EB003E7F30934A
:1041B000EB003091ED003D7F3093ED003091EB004E
:1041C00031603093EB007093EC002093ED0050933E
:1041D000F0002091EE0027FDE5CF80E008958F707C
:1041E0008093E90081E0089580918E0287FF11C0DD
:1041F0008091E80082FD05C080918D028111F8CF89
:1042000011C08091E8008B770BC080918D028823CC
:1042100049F08091E80080FFF8CF8091E8008E7728
:104220008093E80008952091E4003091E50095E640
:104230004091EC00842F817040FF23C08091E80002
:1042400080FD1DC080918D02882399F0853099F002
:104250008091EB0085FD11C04091E4005091E50094
:104260002417350729F3915011F09A01E1CF84E02A
:10427000089582E0089583E0089581E0089580E044
:1042800008954091E80042FFDDCF08950E94B521D6
:104290000E94BD21E0EEF0E0808181608083E8ED46
:1042A000F0E080818F77808319BCA7EDB0E08C911E
:1042B0008E7F8C9380818F7E808310928C020895F4
:1042C0000F931F93CF93DF930E94B5210E94BD21CE
:1042D000C8EDD0E088818F77888388818068888363
:1042E00088818F7D888319BC10928D02109289027B
:1042F00010928B0210928A0200EE10E0F801808189
:104300008B7F808388818160888342E060E080E0E9
:104310000E94BF20E1EEF0E080818E7F8083E2EE9C
:10432000F0E0808181608083808188608083F801F3
:1043300080818E7F8083888180618883DF91CF91A7
:104340001F910F910895E8EDF0E080818F7E8083CA
:10435000E7EDF0E080818160808384E082BF81E0CE
:1043600080938C020E9460210895E8EDF0E0808146
:104370008E7F80831092E20008951092DA001092EE
:10438000E10008951F920F920FB60F9211242F9300
:104390003F934F935F936F937F938F939F93AF93CD
:1043A000BF93EF93FF938091E10082FF0BC0809158
:1043B000E20082FF07C08091E1008B7F8093E100E3
:1043C0000E942D248091DA0080FF1FC08091D800C8
:1043D00080FF1BC08091DA008E7F8093DA0080918D
:1043E000D90080FF0DC080E189BD82E189BD09B49B
:1043F00000FEFDCF81E080938D020E94841D05C0E8
:1044000019BC10928D020E94921D8091E10080FFE4
:1044100019C08091E20080FF15C08091E2008E7F7C
:104420008093E2008091E20080618093E2008091BD
:10443000D80080628093D80019BC85E080938D02FB
:104440000E94981D8091E10084FF30C08091E200BD
:1044500084FF2CC080E189BD82E189BD09B400FEE2
:10446000FDCF8091D8008F7D8093D8008091E100AE
:104470008F7E8093E1008091E2008F7E8093E20046
:104480008091E20081608093E2008091890288231C
:1044900011F084E007C08091E30087FD02C081E055
:1044A00001C083E080938D020E94A11D8091E100F4
:1044B00083FF29C08091E20083FF25C08091E10045
:1044C000877F8093E10082E080938D0210928902C1
:1044D0008091E1008E7F8093E1008091E2008E7FE9
:1044E0008093E2008091E20080618093E20042E0EC
:1044F00060E080E00E94BF208091F000886080939F
:10450000F0000E94951DFF91EF91BF91AF919F9197
:104510008F917F916F915F914F913F912F910F906C
:104520000FBE0F901F9018951F920F920FB60F920B
:1045300011242F933F934F935F936F937F938F93A8
:104540009F93AF93BF93CF93DF93EF93FF93C0916C
:10455000E900CF708091EC00D82FD17080FDD0E8B9
:104560001092E9008091F000877F8093F0007894AA
:104570000E94D8221092E9008091F0008860809318
:10458000F000CD2BCF70C093E900FF91EF91DF9148
:10459000CF91BF91AF919F918F917F916F915F91DB
:1045A0004F913F912F910F900FBE0F901F90189534
:1045B000AAE2B0E0EEEDF2E20C947924EEE8F2E04B
:1045C0008091F100819322E0E639F207C9F70E9459
:1045D000CB1D8091E80083FF2EC180918E029091C7
:1045E0008F02492F50E04A30510508F024C1FA01EA
:1045F000E256FF4F0C945D24803821F0823809F098
:104600001AC108C080918A0290918B02992389F087
:1046100082600FC0809192028F70873008F00BC1CA
:104620008093E9008091EB0085FB882780F9109248
:10463000E9009091E800977F9093E8008093F10063
:104640001092F100D1C0282F2D7F09F0F4C08823EB
:1046500019F0823061F0EFC080919002813009F052
:10466000EAC0933009F080E080938B022EC08091E5
:10467000900281112AC0809192028F702FEF280F33
:10468000263008F0D8C08093E9002091EB0020FF8D
:104690001CC0933021F48091EB00806214C0909193
:1046A000EB0090619093EB0021E030E0A90102C0A3
:1046B000440F551F8A95E2F74093EA001092EA00F2
:1046C0008091EB0088608093EB001092E90080916C
:1046D000E800877F8093E8000E94F420ACC081113D
:1046E000AAC0109190021F778091E3008078812BFF
:1046F0008093E3008091E800877F8093E8000E9428
:10470000F4208091E80080FFFCCF8091E300806876
:104710008093E300111102C082E001C083E0809326
:104720008D0289C08058823008F085C08091900247
:10473000909191028C3D53E0950779F583E08A834F
:104740008AE289834FB7F894DE01139620E03EE0B9
:1047500051E2E32FF0E050935700E49120FF03C0B3
:10476000E295EF703F5FEF708E2F90E0EA3010F02F
:10477000C79601C0C0968D939D932F5F243149F752
:104780004FBF8091E800877F8093E8006AE270E085
:10479000CE0101960E94002016C060919202709195
:1047A0009302AE014F5F5F4F0E94021FBC01892B35
:1047B00009F441C09091E800977F9093E8008981C7
:1047C0009A810E945E208091E8008B778093E800B8
:1047D00032C0803881F58091E800877F8093E800BF
:1047E000809189028093F1008091E8008E7772CFEA
:1047F000811121C080919002909191029927029796
:10480000D4F48091E800877F8093E8008091900243
:10481000809389020E94F42080918902811106C050
:104820008091E30087FD02C081E001C084E08093B5
:104830008D020E94AC1D8091E80083FF0AC0809128
:10484000E800877F8093E8008091EB00806280938E
:10485000EB00AA96E3E00C9495240895CF93809101
:104860008D028823A1F0C091E900CF709091EC00F7
:10487000892F817090FD80E8C82B1092E90080910B
:10488000E80083FD0E94D822CF70C093E900CF9149
:10489000089597FB072E16F4009407D077FD09D0F2
:1048A0000E94A12407FC05D03EF4909581959F4F6E
:1048B0000895709561957F4F0895EE0FFF1F059045
:1048C000F491E02D0994692796276927782787278F
:1048D000782708952F923F924F925F926F927F9226
:1048E0008F929F92AF92BF92CF92DF92EF92FF9200
:1048F0000F931F93CF93DF93CDB7DEB7CA1BDB0BAC
:104900000FB6F894DEBF0FBECDBF09942A88398850
:1049100048885F846E847D848C849B84AA84B98457
:10492000C884DF80EE80FD800C811B81AA81B98163
:10493000CE0FD11D0FB6F894DEBF0FBECDBFED0177
:104940000895AA1BBB1B51E107C0AA1FBB1FA617D6
:10495000B70710F0A61BB70B881F991F5A95A9F728
:1049600080959095BC01CD010895FB01DC0104C048
:104970008D910190801921F441505040C8F7881B57
:10498000990B0895FB01DC0102C001900D9241508A
:104990005040D8F70895F999FECF92BD81BDF89A9D
:1049A000992780B50895A8E1B0E042E050E00C946A
:1049B0000F25DC01A40FB51F4150504048F0CB013A
:1049C000840F951F2E910E94EA2441505040D0F749
:1049D0000895262FF999FECF92BD81BDF89A0197CF
:1049E00000B4021639F01FBA20BD0FB6F894FA9A37
:1049F000F99A0FBE08950396272F0E94EA240E9479
:104A0000E924252F0E94EA24242F0C94EA240196FD
:104A1000272F0E94EA240C94E924DC01CB01FC013D
:104A2000F999FECF06C0F2BDE1BDF89A319600B407
:0E4A30000D9241505040B8F70895F894FFCF12
:104A3E001202280850011E0A1401030201221D57FA
:104A4E001D501D491D01E200E900EA00B500B60047
:104A5E00B700CD008301CC008A019201940121029E
:104A6E00230224022502260227022A02B300B400E2
:104A7E006F0070009F01CB019F02A002818283E232
:104A8E0000E900EA00B500B600B700CD008301CC06
:104A9E00008A01920194012102230224022502269A
:104AAE000227022A02B300B4006F0070009F01CBF0
:104ABE00019F02A00281828336323331F7353440B2
:0E4ACE0022B6D603FE022003A302BC02DC02C5
:00000001FF
